{
  "contractName": "Controller",
  "abi": [
    {
      "inputs": [
        {
          "internalType": "address",
          "name": "_rally",
          "type": "address"
        }
      ],
      "stateMutability": "nonpayable",
      "type": "constructor"
    },
    {
      "anonymous": false,
      "inputs": [
        {
          "indexed": false,
          "internalType": "uint256",
          "name": "error",
          "type": "uint256"
        },
        {
          "indexed": false,
          "internalType": "uint256",
          "name": "info",
          "type": "uint256"
        },
        {
          "indexed": false,
          "internalType": "uint256",
          "name": "detail",
          "type": "uint256"
        }
      ],
      "name": "Failure",
      "type": "event"
    },
    {
      "anonymous": false,
      "inputs": [
        {
          "indexed": true,
          "internalType": "address",
          "name": "previousOwner",
          "type": "address"
        },
        {
          "indexed": true,
          "internalType": "address",
          "name": "newOwner",
          "type": "address"
        }
      ],
      "name": "OwnershipTransferred",
      "type": "event"
    },
    {
      "anonymous": false,
      "inputs": [
        {
          "indexed": true,
          "internalType": "bytes32",
          "name": "role",
          "type": "bytes32"
        },
        {
          "indexed": true,
          "internalType": "bytes32",
          "name": "previousAdminRole",
          "type": "bytes32"
        },
        {
          "indexed": true,
          "internalType": "bytes32",
          "name": "newAdminRole",
          "type": "bytes32"
        }
      ],
      "name": "RoleAdminChanged",
      "type": "event"
    },
    {
      "anonymous": false,
      "inputs": [
        {
          "indexed": true,
          "internalType": "bytes32",
          "name": "role",
          "type": "bytes32"
        },
        {
          "indexed": true,
          "internalType": "address",
          "name": "account",
          "type": "address"
        },
        {
          "indexed": true,
          "internalType": "address",
          "name": "sender",
          "type": "address"
        }
      ],
      "name": "RoleGranted",
      "type": "event"
    },
    {
      "anonymous": false,
      "inputs": [
        {
          "indexed": true,
          "internalType": "bytes32",
          "name": "role",
          "type": "bytes32"
        },
        {
          "indexed": true,
          "internalType": "address",
          "name": "account",
          "type": "address"
        },
        {
          "indexed": true,
          "internalType": "address",
          "name": "sender",
          "type": "address"
        }
      ],
      "name": "RoleRevoked",
      "type": "event"
    },
    {
      "inputs": [],
      "name": "DEFAULT_ADMIN_ROLE",
      "outputs": [
        {
          "internalType": "bytes32",
          "name": "",
          "type": "bytes32"
        }
      ],
      "stateMutability": "view",
      "type": "function"
    },
    {
      "inputs": [
        {
          "internalType": "bytes32",
          "name": "role",
          "type": "bytes32"
        }
      ],
      "name": "getRoleAdmin",
      "outputs": [
        {
          "internalType": "bytes32",
          "name": "",
          "type": "bytes32"
        }
      ],
      "stateMutability": "view",
      "type": "function"
    },
    {
      "inputs": [
        {
          "internalType": "bytes32",
          "name": "role",
          "type": "bytes32"
        },
        {
          "internalType": "uint256",
          "name": "index",
          "type": "uint256"
        }
      ],
      "name": "getRoleMember",
      "outputs": [
        {
          "internalType": "address",
          "name": "",
          "type": "address"
        }
      ],
      "stateMutability": "view",
      "type": "function"
    },
    {
      "inputs": [
        {
          "internalType": "bytes32",
          "name": "role",
          "type": "bytes32"
        }
      ],
      "name": "getRoleMemberCount",
      "outputs": [
        {
          "internalType": "uint256",
          "name": "",
          "type": "uint256"
        }
      ],
      "stateMutability": "view",
      "type": "function"
    },
    {
      "inputs": [
        {
          "internalType": "bytes32",
          "name": "role",
          "type": "bytes32"
        },
        {
          "internalType": "address",
          "name": "account",
          "type": "address"
        }
      ],
      "name": "grantRole",
      "outputs": [],
      "stateMutability": "nonpayable",
      "type": "function"
    },
    {
      "inputs": [
        {
          "internalType": "bytes32",
          "name": "role",
          "type": "bytes32"
        },
        {
          "internalType": "address",
          "name": "account",
          "type": "address"
        }
      ],
      "name": "hasRole",
      "outputs": [
        {
          "internalType": "bool",
          "name": "",
          "type": "bool"
        }
      ],
      "stateMutability": "view",
      "type": "function"
    },
    {
      "inputs": [],
      "name": "owner",
      "outputs": [
        {
          "internalType": "address",
          "name": "",
          "type": "address"
        }
      ],
      "stateMutability": "view",
      "type": "function"
    },
    {
      "inputs": [],
      "name": "rally",
      "outputs": [
        {
          "internalType": "contract RallyToken",
          "name": "",
          "type": "address"
        }
      ],
      "stateMutability": "view",
      "type": "function"
    },
    {
      "inputs": [],
      "name": "renounceOwnership",
      "outputs": [],
      "stateMutability": "nonpayable",
      "type": "function"
    },
    {
      "inputs": [
        {
          "internalType": "bytes32",
          "name": "role",
          "type": "bytes32"
        },
        {
          "internalType": "address",
          "name": "account",
          "type": "address"
        }
      ],
      "name": "renounceRole",
      "outputs": [],
      "stateMutability": "nonpayable",
      "type": "function"
    },
    {
      "inputs": [
        {
          "internalType": "bytes32",
          "name": "role",
          "type": "bytes32"
        },
        {
          "internalType": "address",
          "name": "account",
          "type": "address"
        }
      ],
      "name": "revokeRole",
      "outputs": [],
      "stateMutability": "nonpayable",
      "type": "function"
    },
    {
      "inputs": [
        {
          "internalType": "address",
          "name": "newOwner",
          "type": "address"
        }
      ],
      "name": "transferOwnership",
      "outputs": [],
      "stateMutability": "nonpayable",
      "type": "function"
    },
    {
      "inputs": [
        {
          "internalType": "address",
          "name": "",
          "type": "address"
        }
      ],
      "name": "ydvs",
      "outputs": [
        {
          "internalType": "address",
          "name": "",
          "type": "address"
        }
      ],
      "stateMutability": "view",
      "type": "function"
    },
    {
      "inputs": [
        {
          "internalType": "address",
          "name": "_vault",
          "type": "address"
        },
        {
          "internalType": "uint256",
          "name": "_amount",
          "type": "uint256"
        }
      ],
      "name": "transferRally",
      "outputs": [],
      "stateMutability": "nonpayable",
      "type": "function"
    },
    {
      "inputs": [
        {
          "internalType": "address",
          "name": "_vault",
          "type": "address"
        },
        {
          "internalType": "address",
          "name": "_ydv",
          "type": "address"
        }
      ],
      "name": "setYDV",
      "outputs": [],
      "stateMutability": "nonpayable",
      "type": "function"
    }
  ],
  "bytecode": "0x608060405234801561001057600080fd5b50604051610f63380380610f638339818101604052602081101561003357600080fd5b5051600061003f6100b2565b600180546001600160a01b0319166001600160a01b038316908117909155604051919250906000907f8be0079c531659141344cd1fd0a4f28419497f9722a3daafe3b4186f6b6457e0908290a350600280546001600160a01b0319166001600160a01b03929092169190911790556100b6565b3390565b610e9e806100c56000396000f3fe608060405234801561001057600080fd5b50600436106100f45760003560e01c80639010d07c11610097578063ca15c87311610066578063ca15c87314610275578063d547741f14610292578063e3a3a064146102be578063f2fde38b146102ea576100f4565b80639010d07c146101e457806391d1485414610207578063a217fddf14610247578063c594205d1461024f576100f4565b80632f2ff15d116100d35780632f2ff15d1461017c57806336568abe146101a8578063715018a6146101d45780638da5cb5b146101dc576100f4565b806230bffe146100f95780631f2b2d771461011d578063248a9ca31461014d575b600080fd5b610101610310565b604080516001600160a01b039092168252519081900360200190f35b61014b6004803603604081101561013357600080fd5b506001600160a01b038135811691602001351661031f565b005b61016a6004803603602081101561016357600080fd5b50356103f8565b60408051918252519081900360200190f35b61014b6004803603604081101561019257600080fd5b50803590602001356001600160a01b031661040d565b61014b600480360360408110156101be57600080fd5b50803590602001356001600160a01b0316610479565b61014b6104da565b61010161057c565b610101600480360360408110156101fa57600080fd5b508035906020013561058b565b6102336004803603604081101561021d57600080fd5b50803590602001356001600160a01b03166105ac565b604080519115158252519081900360200190f35b61016a6105c4565b6101016004803603602081101561026557600080fd5b50356001600160a01b03166105c9565b61016a6004803603602081101561028b57600080fd5b50356105e4565b61014b600480360360408110156102a857600080fd5b50803590602001356001600160a01b03166105fb565b61014b600480360360408110156102d457600080fd5b506001600160a01b038135169060200135610654565b61014b6004803603602081101561030057600080fd5b50356001600160a01b03166106c3565b6002546001600160a01b031681565b6103276107bc565b6001546001600160a01b03908116911614610377576040805162461bcd60e51b81526020600482018190526024820152600080516020610df0833981519152604482015290519081900360640190fd5b6001600160a01b0382811660009081526003602052604090205416156103ca576040805162461bcd60e51b81526020600482015260036024820152623cb23b60e91b604482015290519081900360640190fd5b6001600160a01b03918216600090815260036020526040902080546001600160a01b03191691909216179055565b60009081526020819052604090206002015490565b6000828152602081905260409020600201546104309061042b6107bc565b6105ac565b61046b5760405162461bcd60e51b815260040180806020018281038252602f815260200180610d6b602f913960400191505060405180910390fd5b61047582826107c0565b5050565b6104816107bc565b6001600160a01b0316816001600160a01b0316146104d05760405162461bcd60e51b815260040180806020018281038252602f815260200180610e3a602f913960400191505060405180910390fd5b6104758282610829565b6104e26107bc565b6001546001600160a01b03908116911614610532576040805162461bcd60e51b81526020600482018190526024820152600080516020610df0833981519152604482015290519081900360640190fd5b6001546040516000916001600160a01b0316907f8be0079c531659141344cd1fd0a4f28419497f9722a3daafe3b4186f6b6457e0908390a3600180546001600160a01b0319169055565b6001546001600160a01b031690565b60008281526020819052604081206105a39083610892565b90505b92915050565b60008281526020819052604081206105a3908361089e565b600081565b6003602052600090815260409020546001600160a01b031681565b60008181526020819052604081206105a6906108b3565b6000828152602081905260409020600201546106199061042b6107bc565b6104d05760405162461bcd60e51b8152600401808060200182810382526030815260200180610dc06030913960400191505060405180910390fd5b61065c6107bc565b6001546001600160a01b039081169116146106ac576040805162461bcd60e51b81526020600482018190526024820152600080516020610df0833981519152604482015290519081900360640190fd5b600254610475906001600160a01b031683836108be565b6106cb6107bc565b6001546001600160a01b0390811691161461071b576040805162461bcd60e51b81526020600482018190526024820152600080516020610df0833981519152604482015290519081900360640190fd5b6001600160a01b0381166107605760405162461bcd60e51b8152600401808060200182810382526026815260200180610d9a6026913960400191505060405180910390fd5b6001546040516001600160a01b038084169216907f8be0079c531659141344cd1fd0a4f28419497f9722a3daafe3b4186f6b6457e090600090a3600180546001600160a01b0319166001600160a01b0392909216919091179055565b3390565b60008281526020819052604090206107d89082610915565b15610475576107e56107bc565b6001600160a01b0316816001600160a01b0316837f2f8788117e7eff1d82e926ec794901d17c78024a50270940304540a733656f0d60405160405180910390a45050565b6000828152602081905260409020610841908261092a565b156104755761084e6107bc565b6001600160a01b0316816001600160a01b0316837ff6391f5c32d9c69d2a47ea670b442974b53935d1edc7fd64eb21e047a839171b60405160405180910390a45050565b60006105a3838361093f565b60006105a3836001600160a01b0384166109a3565b60006105a6826109bb565b604080516001600160a01b038416602482015260448082018490528251808303909101815260649091019091526020810180516001600160e01b031663a9059cbb60e01b1790526109109084906109bf565b505050565b60006105a3836001600160a01b038416610a70565b60006105a3836001600160a01b038416610aba565b815460009082106109815760405162461bcd60e51b8152600401808060200182810382526022815260200180610d496022913960400191505060405180910390fd5b82600001828154811061099057fe5b9060005260206000200154905092915050565b60009081526001919091016020526040902054151590565b5490565b6060610a14826040518060400160405280602081526020017f5361666545524332303a206c6f772d6c6576656c2063616c6c206661696c6564815250856001600160a01b0316610b809092919063ffffffff16565b80519091501561091057808060200190516020811015610a3357600080fd5b50516109105760405162461bcd60e51b815260040180806020018281038252602a815260200180610e10602a913960400191505060405180910390fd5b6000610a7c83836109a3565b610ab2575081546001818101845560008481526020808220909301849055845484825282860190935260409020919091556105a6565b5060006105a6565b60008181526001830160205260408120548015610b765783546000198083019190810190600090879083908110610aed57fe5b9060005260206000200154905080876000018481548110610b0a57fe5b600091825260208083209091019290925582815260018981019092526040902090840190558654879080610b3a57fe5b600190038181906000526020600020016000905590558660010160008781526020019081526020016000206000905560019450505050506105a6565b60009150506105a6565b6060610b8f8484600085610b97565b949350505050565b6060610ba285610d42565b610bf3576040805162461bcd60e51b815260206004820152601d60248201527f416464726573733a2063616c6c20746f206e6f6e2d636f6e7472616374000000604482015290519081900360640190fd5b60006060866001600160a01b031685876040518082805190602001908083835b60208310610c325780518252601f199092019160209182019101610c13565b6001836020036101000a03801982511681845116808217855250505050505090500191505060006040518083038185875af1925050503d8060008114610c94576040519150601f19603f3d011682016040523d82523d6000602084013e610c99565b606091505b50915091508115610cad579150610b8f9050565b805115610cbd5780518082602001fd5b8360405162461bcd60e51b81526004018080602001828103825283818151815260200191508051906020019080838360005b83811015610d07578181015183820152602001610cef565b50505050905090810190601f168015610d345780820380516001836020036101000a031916815260200191505b509250505060405180910390fd5b3b15159056fe456e756d657261626c655365743a20696e646578206f7574206f6620626f756e6473416363657373436f6e74726f6c3a2073656e646572206d75737420626520616e2061646d696e20746f206772616e744f776e61626c653a206e6577206f776e657220697320746865207a65726f2061646472657373416363657373436f6e74726f6c3a2073656e646572206d75737420626520616e2061646d696e20746f207265766f6b654f776e61626c653a2063616c6c6572206973206e6f7420746865206f776e65725361666545524332303a204552433230206f7065726174696f6e20646964206e6f742073756363656564416363657373436f6e74726f6c3a2063616e206f6e6c792072656e6f756e636520726f6c657320666f722073656c66a2646970667358221220416b9d5299ad9f86e6716e7d0088e372f3c61a46ea5be9b4f676d2109cd3807b64736f6c634300060c0033",
  "immutableReferences": {},
  "source": "// SPDX-License-Identifier: MIT\npragma solidity ^0.6.2;\n\nimport \"@openzeppelin/contracts/access/AccessControl.sol\";\nimport \"@openzeppelin/contracts/access/Ownable.sol\";\nimport \"@openzeppelin/contracts/token/ERC20/IERC20.sol\";\nimport \"@openzeppelin/contracts/math/SafeMath.sol\";\nimport \"@openzeppelin/contracts/utils/Address.sol\";\nimport \"@openzeppelin/contracts/token/ERC20/SafeERC20.sol\";\n\nimport \"../farming/RallyToken.sol\";\nimport \"../YDVErrorReporter.sol\";\n\ncontract Controller is AccessControl, Ownable, YDVErrorReporter {\n    using SafeERC20 for IERC20;\n    using Address for address;\n    using SafeMath for uint256;\n\n    RallyToken public rally;\n\n    mapping(address => address) public ydvs;\n    \n    constructor(address _rally) public {\n        rally = RallyToken(_rally);\n    }\n\n    function transferRally(address _vault, uint256 _amount) external onlyOwner {\n        IERC20(rally).safeTransfer(_vault, _amount);\n    }\n\n    function setYDV(address _vault, address _ydv) external onlyOwner {\n        require(ydvs[_vault] == address(0), \"ydv\");\n        ydvs[_vault] = _ydv;\n    }\n}\n",
  "sourcePath": "/Users/aranade/Development/yield-delegation/contracts/controllers/Controller.sol",
  "compiler": {
    "name": "solc",
    "version": "0.6.12+commit.27d51765.Emscripten.clang"
  },
  "schemaVersion": "3.2.3",
  "updatedAt": "2020-10-06T04:54:20.212Z",
  "devdoc": {
    "kind": "dev",
    "methods": {
      "getRoleAdmin(bytes32)": {
        "details": "Returns the admin role that controls `role`. See {grantRole} and {revokeRole}. To change a role's admin, use {_setRoleAdmin}."
      },
      "getRoleMember(bytes32,uint256)": {
        "details": "Returns one of the accounts that have `role`. `index` must be a value between 0 and {getRoleMemberCount}, non-inclusive. Role bearers are not sorted in any particular way, and their ordering may change at any point. WARNING: When using {getRoleMember} and {getRoleMemberCount}, make sure you perform all queries on the same block. See the following https://forum.openzeppelin.com/t/iterating-over-elements-on-enumerableset-in-openzeppelin-contracts/2296[forum post] for more information."
      },
      "getRoleMemberCount(bytes32)": {
        "details": "Returns the number of accounts that have `role`. Can be used together with {getRoleMember} to enumerate all bearers of a role."
      },
      "grantRole(bytes32,address)": {
        "details": "Grants `role` to `account`. If `account` had not been already granted `role`, emits a {RoleGranted} event. Requirements: - the caller must have ``role``'s admin role."
      },
      "hasRole(bytes32,address)": {
        "details": "Returns `true` if `account` has been granted `role`."
      },
      "owner()": {
        "details": "Returns the address of the current owner."
      },
      "renounceOwnership()": {
        "details": "Leaves the contract without owner. It will not be possible to call `onlyOwner` functions anymore. Can only be called by the current owner. NOTE: Renouncing ownership will leave the contract without an owner, thereby removing any functionality that is only available to the owner."
      },
      "renounceRole(bytes32,address)": {
        "details": "Revokes `role` from the calling account. Roles are often managed via {grantRole} and {revokeRole}: this function's purpose is to provide a mechanism for accounts to lose their privileges if they are compromised (such as when a trusted device is misplaced). If the calling account had been granted `role`, emits a {RoleRevoked} event. Requirements: - the caller must be `account`."
      },
      "revokeRole(bytes32,address)": {
        "details": "Revokes `role` from `account`. If `account` had been granted `role`, emits a {RoleRevoked} event. Requirements: - the caller must have ``role``'s admin role."
      },
      "transferOwnership(address)": {
        "details": "Transfers ownership of the contract to a new account (`newOwner`). Can only be called by the current owner."
      }
    },
    "version": 1
  },
  "userdoc": {
    "kind": "user",
    "methods": {},
    "version": 1
  }
}