{
  "contractName": "NoMintLiquidityRewardPools",
  "abi": [
    {
      "inputs": [
        {
          "internalType": "contract RallyToken",
          "name": "_rally",
          "type": "address"
        },
        {
          "internalType": "uint256",
          "name": "_rallyPerBlock",
          "type": "uint256"
        },
        {
          "internalType": "uint256",
          "name": "_startBlock",
          "type": "uint256"
        }
      ],
      "stateMutability": "nonpayable",
      "type": "constructor"
    },
    {
      "anonymous": false,
      "inputs": [
        {
          "indexed": true,
          "internalType": "address",
          "name": "user",
          "type": "address"
        },
        {
          "indexed": true,
          "internalType": "uint256",
          "name": "pid",
          "type": "uint256"
        },
        {
          "indexed": false,
          "internalType": "uint256",
          "name": "amount",
          "type": "uint256"
        }
      ],
      "name": "Deposit",
      "type": "event"
    },
    {
      "anonymous": false,
      "inputs": [
        {
          "indexed": true,
          "internalType": "address",
          "name": "user",
          "type": "address"
        },
        {
          "indexed": true,
          "internalType": "uint256",
          "name": "pid",
          "type": "uint256"
        },
        {
          "indexed": false,
          "internalType": "uint256",
          "name": "amount",
          "type": "uint256"
        }
      ],
      "name": "EmergencyWithdraw",
      "type": "event"
    },
    {
      "anonymous": false,
      "inputs": [
        {
          "indexed": true,
          "internalType": "address",
          "name": "previousOwner",
          "type": "address"
        },
        {
          "indexed": true,
          "internalType": "address",
          "name": "newOwner",
          "type": "address"
        }
      ],
      "name": "OwnershipTransferred",
      "type": "event"
    },
    {
      "anonymous": false,
      "inputs": [
        {
          "indexed": true,
          "internalType": "address",
          "name": "user",
          "type": "address"
        },
        {
          "indexed": true,
          "internalType": "uint256",
          "name": "pid",
          "type": "uint256"
        },
        {
          "indexed": false,
          "internalType": "uint256",
          "name": "amount",
          "type": "uint256"
        }
      ],
      "name": "Withdraw",
      "type": "event"
    },
    {
      "inputs": [],
      "name": "owner",
      "outputs": [
        {
          "internalType": "address",
          "name": "",
          "type": "address"
        }
      ],
      "stateMutability": "view",
      "type": "function",
      "constant": true
    },
    {
      "inputs": [
        {
          "internalType": "uint256",
          "name": "",
          "type": "uint256"
        }
      ],
      "name": "poolInfo",
      "outputs": [
        {
          "internalType": "contract IERC20",
          "name": "lpToken",
          "type": "address"
        },
        {
          "internalType": "uint256",
          "name": "allocPoint",
          "type": "uint256"
        },
        {
          "internalType": "uint256",
          "name": "lastRewardBlock",
          "type": "uint256"
        },
        {
          "internalType": "uint256",
          "name": "accRallyPerShare",
          "type": "uint256"
        }
      ],
      "stateMutability": "view",
      "type": "function",
      "constant": true
    },
    {
      "inputs": [],
      "name": "rally",
      "outputs": [
        {
          "internalType": "contract RallyToken",
          "name": "",
          "type": "address"
        }
      ],
      "stateMutability": "view",
      "type": "function",
      "constant": true
    },
    {
      "inputs": [],
      "name": "rallyPerBlock",
      "outputs": [
        {
          "internalType": "uint256",
          "name": "",
          "type": "uint256"
        }
      ],
      "stateMutability": "view",
      "type": "function",
      "constant": true
    },
    {
      "inputs": [],
      "name": "renounceOwnership",
      "outputs": [],
      "stateMutability": "nonpayable",
      "type": "function"
    },
    {
      "inputs": [],
      "name": "startBlock",
      "outputs": [
        {
          "internalType": "uint256",
          "name": "",
          "type": "uint256"
        }
      ],
      "stateMutability": "view",
      "type": "function",
      "constant": true
    },
    {
      "inputs": [],
      "name": "totalAllocPoint",
      "outputs": [
        {
          "internalType": "uint256",
          "name": "",
          "type": "uint256"
        }
      ],
      "stateMutability": "view",
      "type": "function",
      "constant": true
    },
    {
      "inputs": [
        {
          "internalType": "address",
          "name": "newOwner",
          "type": "address"
        }
      ],
      "name": "transferOwnership",
      "outputs": [],
      "stateMutability": "nonpayable",
      "type": "function"
    },
    {
      "inputs": [
        {
          "internalType": "uint256",
          "name": "",
          "type": "uint256"
        },
        {
          "internalType": "address",
          "name": "",
          "type": "address"
        }
      ],
      "name": "userInfo",
      "outputs": [
        {
          "internalType": "uint256",
          "name": "amount",
          "type": "uint256"
        },
        {
          "internalType": "uint256",
          "name": "rewardDebt",
          "type": "uint256"
        }
      ],
      "stateMutability": "view",
      "type": "function",
      "constant": true
    },
    {
      "inputs": [],
      "name": "poolLength",
      "outputs": [
        {
          "internalType": "uint256",
          "name": "",
          "type": "uint256"
        }
      ],
      "stateMutability": "view",
      "type": "function",
      "constant": true
    },
    {
      "inputs": [
        {
          "internalType": "uint256",
          "name": "_allocPoint",
          "type": "uint256"
        },
        {
          "internalType": "contract IERC20",
          "name": "_lpToken",
          "type": "address"
        },
        {
          "internalType": "bool",
          "name": "_withUpdate",
          "type": "bool"
        }
      ],
      "name": "add",
      "outputs": [],
      "stateMutability": "nonpayable",
      "type": "function"
    },
    {
      "inputs": [
        {
          "internalType": "uint256",
          "name": "_pid",
          "type": "uint256"
        },
        {
          "internalType": "uint256",
          "name": "_allocPoint",
          "type": "uint256"
        },
        {
          "internalType": "bool",
          "name": "_withUpdate",
          "type": "bool"
        }
      ],
      "name": "set",
      "outputs": [],
      "stateMutability": "nonpayable",
      "type": "function"
    },
    {
      "inputs": [
        {
          "internalType": "uint256",
          "name": "_rallyPerBlock",
          "type": "uint256"
        }
      ],
      "name": "setRallyPerBlock",
      "outputs": [],
      "stateMutability": "nonpayable",
      "type": "function"
    },
    {
      "inputs": [
        {
          "internalType": "uint256",
          "name": "_pid",
          "type": "uint256"
        },
        {
          "internalType": "address",
          "name": "_user",
          "type": "address"
        }
      ],
      "name": "pendingRally",
      "outputs": [
        {
          "internalType": "uint256",
          "name": "",
          "type": "uint256"
        }
      ],
      "stateMutability": "view",
      "type": "function",
      "constant": true
    },
    {
      "inputs": [],
      "name": "massUpdatePools",
      "outputs": [],
      "stateMutability": "nonpayable",
      "type": "function"
    },
    {
      "inputs": [
        {
          "internalType": "uint256",
          "name": "_pid",
          "type": "uint256"
        }
      ],
      "name": "updatePool",
      "outputs": [],
      "stateMutability": "nonpayable",
      "type": "function"
    },
    {
      "inputs": [
        {
          "internalType": "uint256",
          "name": "_pid",
          "type": "uint256"
        },
        {
          "internalType": "uint256",
          "name": "_amount",
          "type": "uint256"
        }
      ],
      "name": "deposit",
      "outputs": [],
      "stateMutability": "nonpayable",
      "type": "function"
    },
    {
      "inputs": [
        {
          "internalType": "uint256",
          "name": "_pid",
          "type": "uint256"
        },
        {
          "internalType": "uint256",
          "name": "_amount",
          "type": "uint256"
        }
      ],
      "name": "withdraw",
      "outputs": [],
      "stateMutability": "nonpayable",
      "type": "function"
    },
    {
      "inputs": [
        {
          "internalType": "uint256",
          "name": "_pid",
          "type": "uint256"
        }
      ],
      "name": "emergencyWithdraw",
      "outputs": [],
      "stateMutability": "nonpayable",
      "type": "function"
    }
  ],
  "bytecode": "0x6080604052600060055534801561001557600080fd5b5060405161168a38038061168a8339818101604052606081101561003857600080fd5b508051602082015160409092015190919060006100536100c9565b600080546001600160a01b0319166001600160a01b0383169081178255604051929350917f8be0079c531659141344cd1fd0a4f28419497f9722a3daafe3b4186f6b6457e0908290a350600180546001600160a01b0319166001600160a01b0394909416939093179092556002556006556100cd565b3390565b6115ae806100dc6000396000f3fe608060405234801561001057600080fd5b50600436106101205760003560e01c8063630b5ba1116100ad57806393f1a40b1161007157806393f1a40b146102c2578063a4eb1c9414610307578063e2bbb15814610324578063f09d630914610347578063f2fde38b1461034f57610120565b8063630b5ba11461025357806364482f791461025b5780636a617ca314610286578063715018a6146102b25780638da5cb5b146102ba57610120565b80631eaaa045116100f45780631eaaa045146101b8578063441a3e70146101ee57806348cd4cb11461021157806351eb05a6146102195780635312ea8e1461023657610120565b806230bffe14610125578063081e3eda146101495780631526fe271461016357806317caf6f1146101b0575b600080fd5b61012d610375565b604080516001600160a01b039092168252519081900360200190f35b610151610384565b60408051918252519081900360200190f35b6101806004803603602081101561017957600080fd5b503561038a565b604080516001600160a01b0390951685526020850193909352838301919091526060830152519081900360800190f35b6101516103cb565b6101ec600480360360608110156101ce57600080fd5b508035906001600160a01b03602082013516906040013515156103d1565b005b6101ec6004803603604081101561020457600080fd5b508035906020013561054c565b6101516106ad565b6101ec6004803603602081101561022f57600080fd5b50356106b3565b6101ec6004803603602081101561024c57600080fd5b50356107ec565b6101ec610884565b6101ec6004803603606081101561027157600080fd5b508035906020810135906040013515156108a7565b6101516004803603604081101561029c57600080fd5b50803590602001356001600160a01b0316610978565b6101ec610ae1565b61012d610b83565b6102ee600480360360408110156102d857600080fd5b50803590602001356001600160a01b0316610b92565b6040805192835260208301919091528051918290030190f35b6101ec6004803603602081101561031d57600080fd5b5035610bb6565b6101ec6004803603604081101561033a57600080fd5b5080359060200135610c1b565b610151610d2d565b6101ec6004803603602081101561036557600080fd5b50356001600160a01b0316610d33565b6001546001600160a01b031681565b60035490565b6003818154811061039757fe5b600091825260209091206004909102018054600182015460028301546003909301546001600160a01b039092169350919084565b60055481565b6103d9610e2b565b6000546001600160a01b03908116911614610429576040805162461bcd60e51b8152602060048201819052602482015260008051602061152f833981519152604482015290519081900360640190fd5b801561043757610437610884565b6000600654431161044a5760065461044c565b435b60055490915061045c9085610e2f565b600555604080516080810182526001600160a01b0394851681526020810195865290810191825260006060820181815260038054600181018255925291517fc2575a0e9e593c00f959f8c92f12db2869c3395a3b0502d05e2516446f71f85b600490920291820180546001600160a01b031916919096161790945593517fc2575a0e9e593c00f959f8c92f12db2869c3395a3b0502d05e2516446f71f85c840155517fc2575a0e9e593c00f959f8c92f12db2869c3395a3b0502d05e2516446f71f85d8301555090517fc2575a0e9e593c00f959f8c92f12db2869c3395a3b0502d05e2516446f71f85e90910155565b60006003838154811061055b57fe5b60009182526020808320868452600480835260408086203387529093529190932080549290910290920192508311156105d0576040805162461bcd60e51b81526020600482015260126024820152711dda5d1a191c985dce881b9bdd0819dbdbd960721b604482015290519081900360640190fd5b6105d9846106b3565b6000610613826001015461060d64e8d4a5100061060787600301548760000154610e9090919063ffffffff16565b90610ee9565b90610f2b565b90508015610625576106253382610f6d565b831561064f5781546106379085610f2b565b8255825461064f906001600160a01b031633866110fe565b6003830154825461066a9164e8d4a510009161060791610e90565b6001830155604080518581529051869133917ff279e6a1f5e320cca91135676d9cb6e44ca8a08c0b88342bcdb1144f6511b5689181900360200190a35050505050565b60065481565b6000600382815481106106c257fe5b90600052602060002090600402019050806002015443116106e357506107e9565b8054604080516370a0823160e01b815230600482015290516000926001600160a01b0316916370a08231916024808301926020929190829003018186803b15801561072d57600080fd5b505afa158015610741573d6000803e3d6000fd5b505050506040513d602081101561075757600080fd5b505190508061076d5750436002909101556107e9565b6000610786836002015443610f2b90919063ffffffff16565b905060006107b360055461060786600101546107ad60025487610e9090919063ffffffff16565b90610e90565b90506107d66107cb846106078464e8d4a51000610e90565b600386015490610e2f565b6003850155505043600290920191909155505b50565b6000600382815481106107fb57fe5b6000918252602080832085845260048083526040808620338088529452909420805494909302018054909450919261083d926001600160a01b031691906110fe565b80546040805191825251849133917fbb757047c2b5f3974fe26b7c10f732e7bce710b0952a71082702781e62ae05959181900360200190a360008082556001909101555050565b60035460005b818110156108a35761089b816106b3565b60010161088a565b5050565b6108af610e2b565b6000546001600160a01b039081169116146108ff576040805162461bcd60e51b8152602060048201819052602482015260008051602061152f833981519152604482015290519081900360640190fd5b801561090d5761090d610884565b61094a826109446003868154811061092157fe5b906000526020600020906004020160010154600554610f2b90919063ffffffff16565b90610e2f565b600581905550816003848154811061095e57fe5b906000526020600020906004020160010181905550505050565b6000806003848154811061098857fe5b60009182526020808320878452600480835260408086206001600160a01b038a811688529085528187209583029093016003810154815483516370a0823160e01b81523095810195909552925191985095969491909316926370a08231926024808201939291829003018186803b158015610a0257600080fd5b505afa158015610a16573d6000803e3d6000fd5b505050506040513d6020811015610a2c57600080fd5b5051600285015490915043118015610a4357508015155b15610aac576000610a61856002015443610f2b90919063ffffffff16565b90506000610a8860055461060788600101546107ad60025487610e9090919063ffffffff16565b9050610aa7610aa0846106078464e8d4a51000610e90565b8590610e2f565b935050505b610ad4836001015461060d64e8d4a51000610607868860000154610e9090919063ffffffff16565b9450505050505b92915050565b610ae9610e2b565b6000546001600160a01b03908116911614610b39576040805162461bcd60e51b8152602060048201819052602482015260008051602061152f833981519152604482015290519081900360640190fd5b600080546040516001600160a01b03909116907f8be0079c531659141344cd1fd0a4f28419497f9722a3daafe3b4186f6b6457e0908390a3600080546001600160a01b0319169055565b6000546001600160a01b031690565b60046020908152600092835260408084209091529082529020805460019091015482565b610bbe610e2b565b6000546001600160a01b03908116911614610c0e576040805162461bcd60e51b8152602060048201819052602482015260008051602061152f833981519152604482015290519081900360640190fd5b610c16610884565b600255565b600060038381548110610c2a57fe5b60009182526020808320868452600480835260408086203387529093529190932091029091019150610c5b846106b3565b805415610ca4576000610c90826001015461060d64e8d4a5100061060787600301548760000154610e9090919063ffffffff16565b90508015610ca257610ca23382610f6d565b505b8215610cd0578154610cc1906001600160a01b0316333086611150565b8054610ccd9084610e2f565b81555b60038201548154610ceb9164e8d4a510009161060791610e90565b6001820155604080518481529051859133917f90890809c654f11d6e72a28fa60149770a0d11ec6c92319d6ceb2bb0a4ea1a159181900360200190a350505050565b60025481565b610d3b610e2b565b6000546001600160a01b03908116911614610d8b576040805162461bcd60e51b8152602060048201819052602482015260008051602061152f833981519152604482015290519081900360640190fd5b6001600160a01b038116610dd05760405162461bcd60e51b81526004018080602001828103825260268152602001806114e86026913960400191505060405180910390fd5b600080546040516001600160a01b03808516939216917f8be0079c531659141344cd1fd0a4f28419497f9722a3daafe3b4186f6b6457e091a3600080546001600160a01b0319166001600160a01b0392909216919091179055565b3390565b600082820183811015610e89576040805162461bcd60e51b815260206004820152601b60248201527f536166654d6174683a206164646974696f6e206f766572666c6f770000000000604482015290519081900360640190fd5b9392505050565b600082610e9f57506000610adb565b82820282848281610eac57fe5b0414610e895760405162461bcd60e51b815260040180806020018281038252602181526020018061150e6021913960400191505060405180910390fd5b6000610e8983836040518060400160405280601a81526020017f536166654d6174683a206469766973696f6e206279207a65726f0000000000008152506111b0565b6000610e8983836040518060400160405280601e81526020017f536166654d6174683a207375627472616374696f6e206f766572666c6f770000815250611252565b600154604080516370a0823160e01b815230600482015290516000926001600160a01b0316916370a08231916024808301926020929190829003018186803b158015610fb857600080fd5b505afa158015610fcc573d6000803e3d6000fd5b505050506040513d6020811015610fe257600080fd5b5051905080821115611076576001546040805163a9059cbb60e01b81526001600160a01b038681166004830152602482018590529151919092169163a9059cbb9160448083019260209291908290030181600087803b15801561104457600080fd5b505af1158015611058573d6000803e3d6000fd5b505050506040513d602081101561106e57600080fd5b506110f99050565b6001546040805163a9059cbb60e01b81526001600160a01b038681166004830152602482018690529151919092169163a9059cbb9160448083019260209291908290030181600087803b1580156110cc57600080fd5b505af11580156110e0573d6000803e3d6000fd5b505050506040513d60208110156110f657600080fd5b50505b505050565b604080516001600160a01b038416602482015260448082018490528251808303909101815260649091019091526020810180516001600160e01b031663a9059cbb60e01b1790526110f99084906112ac565b604080516001600160a01b0380861660248301528416604482015260648082018490528251808303909101815260849091019091526020810180516001600160e01b03166323b872dd60e01b1790526111aa9085906112ac565b50505050565b6000818361123c5760405162461bcd60e51b81526004018080602001828103825283818151815260200191508051906020019080838360005b838110156112015781810151838201526020016111e9565b50505050905090810190601f16801561122e5780820380516001836020036101000a031916815260200191505b509250505060405180910390fd5b50600083858161124857fe5b0495945050505050565b600081848411156112a45760405162461bcd60e51b81526020600482018181528351602484015283519092839260449091019190850190808383600083156112015781810151838201526020016111e9565b505050900390565b6060611301826040518060400160405280602081526020017f5361666545524332303a206c6f772d6c6576656c2063616c6c206661696c6564815250856001600160a01b031661135d9092919063ffffffff16565b8051909150156110f95780806020019051602081101561132057600080fd5b50516110f95760405162461bcd60e51b815260040180806020018281038252602a81526020018061154f602a913960400191505060405180910390fd5b606061136c8484600085611374565b949350505050565b606061137f856114e1565b6113d0576040805162461bcd60e51b815260206004820152601d60248201527f416464726573733a2063616c6c20746f206e6f6e2d636f6e7472616374000000604482015290519081900360640190fd5b60006060866001600160a01b031685876040518082805190602001908083835b6020831061140f5780518252601f1990920191602091820191016113f0565b6001836020036101000a03801982511681845116808217855250505050505090500191505060006040518083038185875af1925050503d8060008114611471576040519150601f19603f3d011682016040523d82523d6000602084013e611476565b606091505b5091509150811561148a57915061136c9050565b80511561149a5780518082602001fd5b60405162461bcd60e51b81526020600482018181528651602484015286518793919283926044019190850190808383600083156112015781810151838201526020016111e9565b3b15159056fe4f776e61626c653a206e6577206f776e657220697320746865207a65726f2061646472657373536166654d6174683a206d756c7469706c69636174696f6e206f766572666c6f774f776e61626c653a2063616c6c6572206973206e6f7420746865206f776e65725361666545524332303a204552433230206f7065726174696f6e20646964206e6f742073756363656564a26469706673582212201520c105e106383c2712d357765765ea18e69e28b407021b9e138f2e21c8160864736f6c634300060c0033",
  "immutableReferences": {},
  "source": "// SPDX-License-Identifier: MIT\npragma solidity ^0.6.2;\n\n\nimport \"@openzeppelin/contracts/token/ERC20/IERC20.sol\";\nimport \"@openzeppelin/contracts/token/ERC20/SafeERC20.sol\";\nimport \"@openzeppelin/contracts/utils/EnumerableSet.sol\";\nimport \"@openzeppelin/contracts/math/SafeMath.sol\";\nimport \"@openzeppelin/contracts/access/Ownable.sol\";\nimport \"./RallyToken.sol\";\n\ncontract NoMintLiquidityRewardPools is Ownable {\n    using SafeMath for uint256;\n    using SafeERC20 for IERC20;\n\n    // Info of each user.\n    struct UserInfo {\n        uint256 amount;     // How many LP tokens the user has provided.\n        uint256 rewardDebt; // Reward debt. See explanation below.\n        //\n        // We do some fancy math here. Basically, any point in time, the amount of RLY\n        // entitled to a user but is pending to be distributed is:\n        //\n        //   pending reward = (user.amount * pool.accRallyPerShare) - user.rewardDebt\n        //\n        // Whenever a user deposits or withdraws LP tokens to a pool. Here's what happens:\n        //   1. The pool's `accRallyPerShare` (and `lastRewardBlock`) gets updated.\n        //   2. User receives the pending reward sent to his/her address.\n        //   3. User's `amount` gets updated.\n        //   4. User's `rewardDebt` gets updated.\n    }\n\n    // Info of each pool.\n    struct PoolInfo {\n        IERC20 lpToken;           // Address of LP token contract.\n        uint256 allocPoint;       // How many allocation points assigned to this pool. RLYs to distribute per block.\n        uint256 lastRewardBlock;  // Last block number that RLYs distribution occurs.\n        uint256 accRallyPerShare; // Accumulated RLYs per share, times 1e12. See below.\n    }\n\n    // The RALLY TOKEN!\n    RallyToken public rally;\n    // RLY tokens created per block.\n    uint256 public rallyPerBlock;\n\n    // Info of each pool.\n    PoolInfo[] public poolInfo;\n    // Info of each user that stakes LP tokens.\n    mapping (uint256 => mapping (address => UserInfo)) public userInfo;\n    // Total allocation points. Must be the sum of all allocation points in all pools.\n    uint256 public totalAllocPoint = 0;\n    // The block number when RLY mining starts.\n    uint256 public startBlock;\n\n    event Deposit(address indexed user, uint256 indexed pid, uint256 amount);\n    event Withdraw(address indexed user, uint256 indexed pid, uint256 amount);\n    event EmergencyWithdraw(address indexed user, uint256 indexed pid, uint256 amount);\n\n    constructor(\n        RallyToken _rally,\n        uint256 _rallyPerBlock,\n        uint256 _startBlock\n    ) public {\n        rally = _rally;\n        rallyPerBlock = _rallyPerBlock;\n        startBlock = _startBlock;\n    }\n\n    function poolLength() external view returns (uint256) {\n        return poolInfo.length;\n    }\n\n    // Add a new lp to the pool. Can only be called by the owner.\n    // XXX DO NOT add the same LP token more than once. Rewards will be messed up if you do.\n    function add(uint256 _allocPoint, IERC20 _lpToken, bool _withUpdate) public onlyOwner {\n        if (_withUpdate) {\n            massUpdatePools();\n        }\n        uint256 lastRewardBlock = block.number > startBlock ? block.number : startBlock;\n        totalAllocPoint = totalAllocPoint.add(_allocPoint);\n        poolInfo.push(PoolInfo({\n            lpToken: _lpToken,\n            allocPoint: _allocPoint,\n            lastRewardBlock: lastRewardBlock,\n            accRallyPerShare: 0\n        }));\n    }\n\n    // Update the given pool's RLY allocation point. Can only be called by the owner.\n    function set(uint256 _pid, uint256 _allocPoint, bool _withUpdate) public onlyOwner {\n        if (_withUpdate) {\n            massUpdatePools();\n        }\n        totalAllocPoint = totalAllocPoint.sub(poolInfo[_pid].allocPoint).add(_allocPoint);\n        poolInfo[_pid].allocPoint = _allocPoint;\n    }\n\n    // update the rate at which RLY is allocated to rewards, can only be called by the owner\n    function setRallyPerBlock(uint256 _rallyPerBlock) public onlyOwner {\n        massUpdatePools();\n        rallyPerBlock = _rallyPerBlock;\n    }\n\n    // View function to see pending RLYs on frontend.\n    function pendingRally(uint256 _pid, address _user) external view returns (uint256) {\n        PoolInfo storage pool = poolInfo[_pid];\n        UserInfo storage user = userInfo[_pid][_user];\n        uint256 accRallyPerShare = pool.accRallyPerShare;\n        uint256 lpSupply = pool.lpToken.balanceOf(address(this));\n        if (block.number > pool.lastRewardBlock && lpSupply != 0) {\n            uint256 multiplier = block.number.sub(pool.lastRewardBlock);\n            uint256 rallyReward = multiplier.mul(rallyPerBlock).mul(pool.allocPoint).div(totalAllocPoint);\n            accRallyPerShare = accRallyPerShare.add(rallyReward.mul(1e12).div(lpSupply));\n        }\n        return user.amount.mul(accRallyPerShare).div(1e12).sub(user.rewardDebt);\n    }\n\n    // Update reward variables for all pools. Be careful of gas spending!\n    function massUpdatePools() public {\n        uint256 length = poolInfo.length;\n        for (uint256 pid = 0; pid < length; ++pid) {\n            updatePool(pid);\n        }\n    }\n\n    // Update reward variables of the given pool to be up-to-date.\n    // No new RLY are minted, distribution is dependent on sufficient RLY tokens being sent to this contract\n    function updatePool(uint256 _pid) public {\n        PoolInfo storage pool = poolInfo[_pid];\n        if (block.number <= pool.lastRewardBlock) {\n            return;\n        }\n        uint256 lpSupply = pool.lpToken.balanceOf(address(this));\n        if (lpSupply == 0) {\n            pool.lastRewardBlock = block.number;\n            return;\n        }\n        uint256 multiplier = block.number.sub(pool.lastRewardBlock);\n        uint256 rallyReward = multiplier.mul(rallyPerBlock).mul(pool.allocPoint).div(totalAllocPoint);\n        pool.accRallyPerShare = pool.accRallyPerShare.add(rallyReward.mul(1e12).div(lpSupply));\n        pool.lastRewardBlock = block.number;\n    }\n\n    // Deposit LP tokens to pool for RLY allocation.\n    function deposit(uint256 _pid, uint256 _amount) public {\n        PoolInfo storage pool = poolInfo[_pid];\n        UserInfo storage user = userInfo[_pid][msg.sender];\n        updatePool(_pid);\n        if (user.amount > 0) {\n            uint256 pending = user.amount.mul(pool.accRallyPerShare).div(1e12).sub(user.rewardDebt);\n            if(pending > 0) {\n                safeRallyTransfer(msg.sender, pending);\n            }\n        }\n        if(_amount > 0) {\n            pool.lpToken.safeTransferFrom(address(msg.sender), address(this), _amount);\n            user.amount = user.amount.add(_amount);\n        }\n        user.rewardDebt = user.amount.mul(pool.accRallyPerShare).div(1e12);\n        emit Deposit(msg.sender, _pid, _amount);\n    }\n\n    // Withdraw LP tokens from pool.\n    function withdraw(uint256 _pid, uint256 _amount) public {\n        PoolInfo storage pool = poolInfo[_pid];\n        UserInfo storage user = userInfo[_pid][msg.sender];\n        require(user.amount >= _amount, \"withdraw: not good\");\n        updatePool(_pid);\n        uint256 pending = user.amount.mul(pool.accRallyPerShare).div(1e12).sub(user.rewardDebt);\n        if(pending > 0) {\n            safeRallyTransfer(msg.sender, pending);\n        }\n        if(_amount > 0) {\n            user.amount = user.amount.sub(_amount);\n            pool.lpToken.safeTransfer(address(msg.sender), _amount);\n        }\n        user.rewardDebt = user.amount.mul(pool.accRallyPerShare).div(1e12);\n        emit Withdraw(msg.sender, _pid, _amount);\n    }\n\n    // Withdraw without caring about rewards. EMERGENCY ONLY.\n    function emergencyWithdraw(uint256 _pid) public {\n        PoolInfo storage pool = poolInfo[_pid];\n        UserInfo storage user = userInfo[_pid][msg.sender];\n        pool.lpToken.safeTransfer(address(msg.sender), user.amount);\n        emit EmergencyWithdraw(msg.sender, _pid, user.amount);\n        user.amount = 0;\n        user.rewardDebt = 0;\n    }\n\n    // Safe RLY transfer function, just in case pool does not have enough RLY; either rounding error or we're not supplying more rewards\n    function safeRallyTransfer(address _to, uint256 _amount) internal {\n        uint256 rallyBal = rally.balanceOf(address(this));\n        if (_amount > rallyBal) {\n            rally.transfer(_to, rallyBal);\n        } else {\n            rally.transfer(_to, _amount);\n        }\n    }\n}\n",
  "sourcePath": "/Users/aranade/Development/yield-delegation/contracts/farming/NoMintLiquidityRewardPools.sol",
  "compiler": {
    "name": "solc",
    "version": "0.6.12+commit.27d51765.Emscripten.clang"
  },
  "schemaVersion": "3.2.3",
  "updatedAt": "2020-10-06T04:54:23.387Z",
  "networkType": "ethereum",
  "devdoc": {
    "kind": "dev",
    "methods": {
      "owner()": {
        "details": "Returns the address of the current owner."
      },
      "renounceOwnership()": {
        "details": "Leaves the contract without owner. It will not be possible to call `onlyOwner` functions anymore. Can only be called by the current owner. NOTE: Renouncing ownership will leave the contract without an owner, thereby removing any functionality that is only available to the owner."
      },
      "transferOwnership(address)": {
        "details": "Transfers ownership of the contract to a new account (`newOwner`). Can only be called by the current owner."
      }
    },
    "version": 1
  },
  "userdoc": {
    "kind": "user",
    "methods": {},
    "version": 1
  }
}