{
  "contractName": "SampleVault",
  "abi": [
    {
      "inputs": [
        {
          "internalType": "address",
          "name": "_token",
          "type": "address"
        }
      ],
      "stateMutability": "nonpayable",
      "type": "constructor"
    },
    {
      "anonymous": false,
      "inputs": [
        {
          "indexed": true,
          "internalType": "address",
          "name": "owner",
          "type": "address"
        },
        {
          "indexed": true,
          "internalType": "address",
          "name": "spender",
          "type": "address"
        },
        {
          "indexed": false,
          "internalType": "uint256",
          "name": "value",
          "type": "uint256"
        }
      ],
      "name": "Approval",
      "type": "event"
    },
    {
      "anonymous": false,
      "inputs": [
        {
          "indexed": true,
          "internalType": "address",
          "name": "from",
          "type": "address"
        },
        {
          "indexed": true,
          "internalType": "address",
          "name": "to",
          "type": "address"
        },
        {
          "indexed": false,
          "internalType": "uint256",
          "name": "value",
          "type": "uint256"
        }
      ],
      "name": "Transfer",
      "type": "event"
    },
    {
      "inputs": [
        {
          "internalType": "address",
          "name": "owner",
          "type": "address"
        },
        {
          "internalType": "address",
          "name": "spender",
          "type": "address"
        }
      ],
      "name": "allowance",
      "outputs": [
        {
          "internalType": "uint256",
          "name": "",
          "type": "uint256"
        }
      ],
      "stateMutability": "view",
      "type": "function",
      "constant": true
    },
    {
      "inputs": [
        {
          "internalType": "address",
          "name": "spender",
          "type": "address"
        },
        {
          "internalType": "uint256",
          "name": "amount",
          "type": "uint256"
        }
      ],
      "name": "approve",
      "outputs": [
        {
          "internalType": "bool",
          "name": "",
          "type": "bool"
        }
      ],
      "stateMutability": "nonpayable",
      "type": "function"
    },
    {
      "inputs": [
        {
          "internalType": "address",
          "name": "account",
          "type": "address"
        }
      ],
      "name": "balanceOf",
      "outputs": [
        {
          "internalType": "uint256",
          "name": "",
          "type": "uint256"
        }
      ],
      "stateMutability": "view",
      "type": "function",
      "constant": true
    },
    {
      "inputs": [],
      "name": "decimals",
      "outputs": [
        {
          "internalType": "uint8",
          "name": "",
          "type": "uint8"
        }
      ],
      "stateMutability": "view",
      "type": "function",
      "constant": true
    },
    {
      "inputs": [
        {
          "internalType": "address",
          "name": "spender",
          "type": "address"
        },
        {
          "internalType": "uint256",
          "name": "subtractedValue",
          "type": "uint256"
        }
      ],
      "name": "decreaseAllowance",
      "outputs": [
        {
          "internalType": "bool",
          "name": "",
          "type": "bool"
        }
      ],
      "stateMutability": "nonpayable",
      "type": "function"
    },
    {
      "inputs": [
        {
          "internalType": "address",
          "name": "spender",
          "type": "address"
        },
        {
          "internalType": "uint256",
          "name": "addedValue",
          "type": "uint256"
        }
      ],
      "name": "increaseAllowance",
      "outputs": [
        {
          "internalType": "bool",
          "name": "",
          "type": "bool"
        }
      ],
      "stateMutability": "nonpayable",
      "type": "function"
    },
    {
      "inputs": [],
      "name": "name",
      "outputs": [
        {
          "internalType": "string",
          "name": "",
          "type": "string"
        }
      ],
      "stateMutability": "view",
      "type": "function",
      "constant": true
    },
    {
      "inputs": [],
      "name": "symbol",
      "outputs": [
        {
          "internalType": "string",
          "name": "",
          "type": "string"
        }
      ],
      "stateMutability": "view",
      "type": "function",
      "constant": true
    },
    {
      "inputs": [],
      "name": "token",
      "outputs": [
        {
          "internalType": "address",
          "name": "",
          "type": "address"
        }
      ],
      "stateMutability": "view",
      "type": "function",
      "constant": true
    },
    {
      "inputs": [],
      "name": "totalSupply",
      "outputs": [
        {
          "internalType": "uint256",
          "name": "",
          "type": "uint256"
        }
      ],
      "stateMutability": "view",
      "type": "function",
      "constant": true
    },
    {
      "inputs": [
        {
          "internalType": "address",
          "name": "recipient",
          "type": "address"
        },
        {
          "internalType": "uint256",
          "name": "amount",
          "type": "uint256"
        }
      ],
      "name": "transfer",
      "outputs": [
        {
          "internalType": "bool",
          "name": "",
          "type": "bool"
        }
      ],
      "stateMutability": "nonpayable",
      "type": "function"
    },
    {
      "inputs": [
        {
          "internalType": "address",
          "name": "sender",
          "type": "address"
        },
        {
          "internalType": "address",
          "name": "recipient",
          "type": "address"
        },
        {
          "internalType": "uint256",
          "name": "amount",
          "type": "uint256"
        }
      ],
      "name": "transferFrom",
      "outputs": [
        {
          "internalType": "bool",
          "name": "",
          "type": "bool"
        }
      ],
      "stateMutability": "nonpayable",
      "type": "function"
    },
    {
      "inputs": [],
      "name": "balance",
      "outputs": [
        {
          "internalType": "uint256",
          "name": "",
          "type": "uint256"
        }
      ],
      "stateMutability": "view",
      "type": "function",
      "constant": true
    },
    {
      "inputs": [],
      "name": "depositAll",
      "outputs": [],
      "stateMutability": "nonpayable",
      "type": "function"
    },
    {
      "inputs": [
        {
          "internalType": "uint256",
          "name": "_amount",
          "type": "uint256"
        }
      ],
      "name": "deposit",
      "outputs": [],
      "stateMutability": "nonpayable",
      "type": "function"
    },
    {
      "inputs": [],
      "name": "withdrawAll",
      "outputs": [],
      "stateMutability": "nonpayable",
      "type": "function"
    },
    {
      "inputs": [
        {
          "internalType": "uint256",
          "name": "_shares",
          "type": "uint256"
        }
      ],
      "name": "withdraw",
      "outputs": [],
      "stateMutability": "nonpayable",
      "type": "function"
    },
    {
      "inputs": [],
      "name": "getPricePerFullShare",
      "outputs": [
        {
          "internalType": "uint256",
          "name": "",
          "type": "uint256"
        }
      ],
      "stateMutability": "view",
      "type": "function",
      "constant": true
    },
    {
      "inputs": [],
      "name": "simulateEarnings",
      "outputs": [],
      "stateMutability": "nonpayable",
      "type": "function"
    }
  ],
  "bytecode": "0x60806040523480156200001157600080fd5b5060405162001a0e38038062001a0e833981810160405260208110156200003757600080fd5b5051604080516306fdde0360e01b815290516001600160a01b038316916306fdde03916004808301926000929190829003018186803b1580156200007a57600080fd5b505afa1580156200008f573d6000803e3d6000fd5b505050506040513d6000823e601f3d908101601f191682016040526020811015620000b957600080fd5b8101908080516040519392919084640100000000821115620000da57600080fd5b908301906020820185811115620000f057600080fd5b82516401000000008111828201881017156200010b57600080fd5b82525081516020918201929091019080838360005b838110156200013a57818101518382015260200162000120565b50505050905090810190601f168015620001685780820380516001836020036101000a031916815260200191505b5060405250505060405160200180806b1cd85b5c1b19481d985d5b1d60a21b815250600c0182805190602001908083835b60208310620001ba5780518252601f19909201916020918201910162000199565b6001836020036101000a038019825116818451168082178552505050505050905001915050604051602081830303815290604052816001600160a01b03166395d89b416040518163ffffffff1660e01b815260040160006040518083038186803b1580156200022857600080fd5b505afa1580156200023d573d6000803e3d6000fd5b505050506040513d6000823e601f3d908101601f1916820160405260208110156200026757600080fd5b81019080805160405193929190846401000000008211156200028857600080fd5b9083019060208201858111156200029e57600080fd5b8251640100000000811182820188101715620002b957600080fd5b82525081516020918201929091019080838360005b83811015620002e8578181015183820152602001620002ce565b50505050905090810190601f168015620003165780820380516001836020036101000a031916815260200191505b5060405250505060405160200180806139bb60f11b81525060020182805190602001908083835b602083106200035e5780518252601f1990920191602091820191016200033d565b6001836020036101000a0380198251168184511680821785525050505050509050019150506040516020818303038152906040528160039080519060200190620003aa9291906200048d565b508051620003c09060049060208401906200048d565b50506005805460ff19166012179055506040805163313ce56760e01b815290516200044b916001600160a01b0384169163313ce56791600480820192602092909190829003018186803b1580156200041757600080fd5b505afa1580156200042c573d6000803e3d6000fd5b505050506040513d60208110156200044357600080fd5b505162000477565b600580546001600160a01b0390921661010002610100600160a81b031990921691909117905562000529565b6005805460ff191660ff92909216919091179055565b828054600181600116156101000203166002900490600052602060002090601f016020900481019282601f10620004d057805160ff191683800117855562000500565b8280016001018555821562000500579182015b8281111562000500578251825591602001919060010190620004e3565b506200050e92915062000512565b5090565b5b808211156200050e576000815560010162000513565b6114d580620005396000396000f3fe608060405234801561001057600080fd5b50600436106101215760003560e01c806377c7b8fc116100ad578063b69ef8a811610071578063b69ef8a81461033a578063b6b55f2514610342578063dd62ed3e1461035f578063de5f62681461038d578063fc0c546a1461039557610121565b806377c7b8fc146102ca578063853828b6146102d257806395d89b41146102da578063a457c2d7146102e2578063a9059cbb1461030e57610121565b80632e1a7d4d116100f45780632e1a7d4d14610233578063313ce5671461025257806339509351146102705780634874c9e11461029c57806370a08231146102a457610121565b806306fdde0314610126578063095ea7b3146101a357806318160ddd146101e357806323b872dd146101fd575b600080fd5b61012e6103b9565b6040805160208082528351818301528351919283929083019185019080838360005b83811015610168578181015183820152602001610150565b50505050905090810190601f1680156101955780820380516001836020036101000a031916815260200191505b509250505060405180910390f35b6101cf600480360360408110156101b957600080fd5b506001600160a01b03813516906020013561044f565b604080519115158252519081900360200190f35b6101eb61046d565b60408051918252519081900360200190f35b6101cf6004803603606081101561021357600080fd5b506001600160a01b03813581169160208101359091169060400135610473565b6102506004803603602081101561024957600080fd5b50356104fa565b005b61025a61054b565b6040805160ff9092168252519081900360200190f35b6101cf6004803603604081101561028657600080fd5b506001600160a01b038135169060200135610554565b6102506105a2565b6101eb600480360360208110156102ba57600080fd5b50356001600160a01b0316610621565b6101eb61063c565b610250610662565b61012e610675565b6101cf600480360360408110156102f857600080fd5b506001600160a01b0381351690602001356106d6565b6101cf6004803603604081101561032457600080fd5b506001600160a01b03813516906020013561073e565b6101eb610752565b6102506004803603602081101561035857600080fd5b50356107d3565b6101eb6004803603604081101561037557600080fd5b506001600160a01b03813581169160200135166108bf565b6102506108ea565b61039d61096c565b604080516001600160a01b039092168252519081900360200190f35b60038054604080516020601f60026000196101006001881615020190951694909404938401819004810282018101909252828152606093909290918301828280156104455780601f1061041a57610100808354040283529160200191610445565b820191906000526020600020905b81548152906001019060200180831161042857829003601f168201915b5050505050905090565b600061046361045c610980565b8484610984565b5060015b92915050565b60025490565b6000610480848484610a70565b6104f08461048c610980565b6104eb856040518060600160405280602881526020016113bf602891396001600160a01b038a166000908152600160205260408120906104ca610980565b6001600160a01b031681526020810191909152604001600020549190610bcb565b610984565b5060019392505050565b600061051f61050761046d565b61051984610513610752565b90610c62565b90610cc2565b905061052b3383610d04565b6005546105479061010090046001600160a01b03163383610e00565b5050565b60055460ff1690565b6000610463610561610980565b846104eb8560016000610572610980565b6001600160a01b03908116825260208083019390935260409182016000908120918c168152925290205490610e57565b60055461010090046001600160a01b03166340c10f19306105c1610752565b6040518363ffffffff1660e01b815260040180836001600160a01b0316815260200182815260200192505050600060405180830381600087803b15801561060757600080fd5b505af115801561061b573d6000803e3d6000fd5b50505050565b6001600160a01b031660009081526020819052604090205490565b600061065d61064961046d565b610519670de0b6b3a7640000610513610752565b905090565b61067361066e33610621565b6104fa565b565b60048054604080516020601f60026000196101006001881615020190951694909404938401819004810282018101909252828152606093909290918301828280156104455780601f1061041a57610100808354040283529160200191610445565b60006104636106e3610980565b846104eb8560405180606001604052806025815260200161147b602591396001600061070d610980565b6001600160a01b03908116825260208083019390935260409182016000908120918d16815292529020549190610bcb565b600061046361074b610980565b8484610a70565b600554604080516370a0823160e01b8152306004820152905160009261010090046001600160a01b0316916370a08231916024808301926020929190829003018186803b1580156107a257600080fd5b505afa1580156107b6573d6000803e3d6000fd5b505050506040513d60208110156107cc57600080fd5b5051905090565b60006107dd610752565b6005549091506107fd9061010090046001600160a01b0316333085610eb1565b600554604080516370a0823160e01b8152306004820152905160009261010090046001600160a01b0316916370a08231916024808301926020929190829003018186803b15801561084d57600080fd5b505afa158015610861573d6000803e3d6000fd5b505050506040513d602081101561087757600080fd5b505190506108858183610f0b565b9250600061089161046d565b61089c5750826108b5565b6108b2836105196108ab61046d565b8790610c62565b90505b61061b3382610f4d565b6001600160a01b03918216600090815260016020908152604080832093909416825291909152205490565b600554604080516370a0823160e01b815233600482015290516106739261010090046001600160a01b0316916370a08231916024808301926020929190829003018186803b15801561093b57600080fd5b505afa15801561094f573d6000803e3d6000fd5b505050506040513d602081101561096557600080fd5b50516107d3565b60055461010090046001600160a01b031681565b3390565b6001600160a01b0383166109c95760405162461bcd60e51b815260040180806020018281038252602481526020018061142d6024913960400191505060405180910390fd5b6001600160a01b038216610a0e5760405162461bcd60e51b81526004018080602001828103825260228152602001806113566022913960400191505060405180910390fd5b6001600160a01b03808416600081815260016020908152604080832094871680845294825291829020859055815185815291517f8c5be1e5ebec7d5bd14f71427d1e84f3dd0314c0f7b2291e5b200ac8c7c3b9259281900390910190a3505050565b6001600160a01b038316610ab55760405162461bcd60e51b81526004018080602001828103825260258152602001806114086025913960400191505060405180910390fd5b6001600160a01b038216610afa5760405162461bcd60e51b81526004018080602001828103825260238152602001806113116023913960400191505060405180910390fd5b610b05838383610e52565b610b4281604051806060016040528060268152602001611378602691396001600160a01b0386166000908152602081905260409020549190610bcb565b6001600160a01b038085166000908152602081905260408082209390935590841681522054610b719082610e57565b6001600160a01b038084166000818152602081815260409182902094909455805185815290519193928716927fddf252ad1be2c89b69c2b068fc378daa952ba7f163c4a11628f55a4df523b3ef92918290030190a3505050565b60008184841115610c5a5760405162461bcd60e51b81526004018080602001828103825283818151815260200191508051906020019080838360005b83811015610c1f578181015183820152602001610c07565b50505050905090810190601f168015610c4c5780820380516001836020036101000a031916815260200191505b509250505060405180910390fd5b505050900390565b600082610c7157506000610467565b82820282848281610c7e57fe5b0414610cbb5760405162461bcd60e51b815260040180806020018281038252602181526020018061139e6021913960400191505060405180910390fd5b9392505050565b6000610cbb83836040518060400160405280601a81526020017f536166654d6174683a206469766973696f6e206279207a65726f00000000000081525061103d565b6001600160a01b038216610d495760405162461bcd60e51b81526004018080602001828103825260218152602001806113e76021913960400191505060405180910390fd5b610d5582600083610e52565b610d9281604051806060016040528060228152602001611334602291396001600160a01b0385166000908152602081905260409020549190610bcb565b6001600160a01b038316600090815260208190526040902055600254610db89082610f0b565b6002556040805182815290516000916001600160a01b038516917fddf252ad1be2c89b69c2b068fc378daa952ba7f163c4a11628f55a4df523b3ef9181900360200190a35050565b604080516001600160a01b038416602482015260448082018490528251808303909101815260649091019091526020810180516001600160e01b031663a9059cbb60e01b179052610e529084906110a2565b505050565b600082820183811015610cbb576040805162461bcd60e51b815260206004820152601b60248201527f536166654d6174683a206164646974696f6e206f766572666c6f770000000000604482015290519081900360640190fd5b604080516001600160a01b0380861660248301528416604482015260648082018490528251808303909101815260849091019091526020810180516001600160e01b03166323b872dd60e01b17905261061b9085906110a2565b6000610cbb83836040518060400160405280601e81526020017f536166654d6174683a207375627472616374696f6e206f766572666c6f770000815250610bcb565b6001600160a01b038216610fa8576040805162461bcd60e51b815260206004820152601f60248201527f45524332303a206d696e7420746f20746865207a65726f206164647265737300604482015290519081900360640190fd5b610fb460008383610e52565b600254610fc19082610e57565b6002556001600160a01b038216600090815260208190526040902054610fe79082610e57565b6001600160a01b0383166000818152602081815260408083209490945583518581529351929391927fddf252ad1be2c89b69c2b068fc378daa952ba7f163c4a11628f55a4df523b3ef9281900390910190a35050565b6000818361108c5760405162461bcd60e51b8152602060048201818152835160248401528351909283926044909101919085019080838360008315610c1f578181015183820152602001610c07565b50600083858161109857fe5b0495945050505050565b60606110f7826040518060400160405280602081526020017f5361666545524332303a206c6f772d6c6576656c2063616c6c206661696c6564815250856001600160a01b03166111539092919063ffffffff16565b805190915015610e525780806020019051602081101561111657600080fd5b5051610e525760405162461bcd60e51b815260040180806020018281038252602a815260200180611451602a913960400191505060405180910390fd5b6060611162848460008561116a565b949350505050565b6060611175856112d7565b6111c6576040805162461bcd60e51b815260206004820152601d60248201527f416464726573733a2063616c6c20746f206e6f6e2d636f6e7472616374000000604482015290519081900360640190fd5b60006060866001600160a01b031685876040518082805190602001908083835b602083106112055780518252601f1990920191602091820191016111e6565b6001836020036101000a03801982511681845116808217855250505050505090500191505060006040518083038185875af1925050503d8060008114611267576040519150601f19603f3d011682016040523d82523d6000602084013e61126c565b606091505b509150915081156112805791506111629050565b8051156112905780518082602001fd5b60405162461bcd60e51b8152602060048201818152865160248401528651879391928392604401919085019080838360008315610c1f578181015183820152602001610c07565b6000813f7fc5d2460186f7233c927e7db2dcc703c0e500b653ca82273b7bfad8045d85a47081811480159061116257505015159291505056fe45524332303a207472616e7366657220746f20746865207a65726f206164647265737345524332303a206275726e20616d6f756e7420657863656564732062616c616e636545524332303a20617070726f766520746f20746865207a65726f206164647265737345524332303a207472616e7366657220616d6f756e7420657863656564732062616c616e6365536166654d6174683a206d756c7469706c69636174696f6e206f766572666c6f7745524332303a207472616e7366657220616d6f756e74206578636565647320616c6c6f77616e636545524332303a206275726e2066726f6d20746865207a65726f206164647265737345524332303a207472616e736665722066726f6d20746865207a65726f206164647265737345524332303a20617070726f76652066726f6d20746865207a65726f20616464726573735361666545524332303a204552433230206f7065726174696f6e20646964206e6f74207375636365656445524332303a2064656372656173656420616c6c6f77616e63652062656c6f77207a65726fa264697066735822122051e1281ebc5a96a408d34192fa6176ce684e8f3359c8ba5b108b567a7011590864736f6c634300060c0033",
  "immutableReferences": {},
  "source": "// SPDX-License-Identifier: MIT\npragma solidity ^0.6.2;\n\nimport \"@openzeppelin/contracts/token/ERC20/IERC20.sol\";\nimport \"@openzeppelin/contracts/math/SafeMath.sol\";\nimport \"@openzeppelin/contracts/utils/Address.sol\";\nimport \"@openzeppelin/contracts/token/ERC20/SafeERC20.sol\";\nimport \"@openzeppelin/contracts/token/ERC20/ERC20.sol\";\nimport \"@openzeppelin/contracts/GSN/Context.sol\";\n\nimport\"./SampleToken.sol\";\n\ncontract SampleVault is ERC20 {\n    using SafeERC20 for IERC20;\n    using Address for address;\n    using SafeMath for uint256;\n\n    address public token;\n\n    constructor (address _token) public ERC20(\n        string(abi.encodePacked(\"sample vault\", ERC20(_token).name())),\n        string(abi.encodePacked(\"sv\", ERC20(_token).symbol()))\n    ) {\n        _setupDecimals(ERC20(_token).decimals());\n        token = _token;\n    }\n\n    function balance() public view returns (uint) {\n        return IERC20(token).balanceOf(address(this));\n    }\n\n    function depositAll() external {\n        deposit(IERC20(token).balanceOf(msg.sender));\n    }\n\n    function deposit(uint _amount) public {\n        uint _pool = balance();\n        IERC20(token).safeTransferFrom(msg.sender, address(this), _amount);\n        uint _after = IERC20(token).balanceOf(address(this));\n        _amount = _after.sub(_pool); // Additional check for deflationary tokens\n\n        //translate vault shares into delegating vault shares\n        uint shares = 0;\n        if (totalSupply() == 0) {\n            shares = _amount;\n        } else {\n            shares = (_amount.mul(totalSupply())).div(_pool);\n        }\n        _mint(msg.sender, shares);\n    }\n\n    function withdrawAll() external {\n        withdraw(balanceOf(msg.sender));\n    }\n\n    function withdraw(uint _shares) public {\n        uint r = (balance().mul(_shares)).div(totalSupply());\n        _burn(msg.sender, _shares);\n\n        IERC20(token).safeTransfer(msg.sender, r);\n    }\n\n    function getPricePerFullShare() public view returns (uint) {\n    \treturn balance().mul(1e18).div(totalSupply());\n    }\n\n    function simulateEarnings() public {\n\tSampleToken(token).mint(address(this), balance());\n    }\n}\n",
  "sourcePath": "/Users/aclement/Documents/Rally/yield-delegation/contracts/samplevault/SampleVault.sol",
  "compiler": {
    "name": "solc",
    "version": "0.6.12+commit.27d51765.Emscripten.clang"
  },
  "schemaVersion": "3.2.3",
  "updatedAt": "2020-09-24T12:54:28.547Z",
  "networkType": "ethereum",
  "devdoc": {
    "kind": "dev",
    "methods": {
      "allowance(address,address)": {
        "details": "See {IERC20-allowance}."
      },
      "approve(address,uint256)": {
        "details": "See {IERC20-approve}. Requirements: - `spender` cannot be the zero address."
      },
      "balanceOf(address)": {
        "details": "See {IERC20-balanceOf}."
      },
      "decimals()": {
        "details": "Returns the number of decimals used to get its user representation. For example, if `decimals` equals `2`, a balance of `505` tokens should be displayed to a user as `5,05` (`505 / 10 ** 2`). Tokens usually opt for a value of 18, imitating the relationship between Ether and Wei. This is the value {ERC20} uses, unless {_setupDecimals} is called. NOTE: This information is only used for _display_ purposes: it in no way affects any of the arithmetic of the contract, including {IERC20-balanceOf} and {IERC20-transfer}."
      },
      "decreaseAllowance(address,uint256)": {
        "details": "Atomically decreases the allowance granted to `spender` by the caller. This is an alternative to {approve} that can be used as a mitigation for problems described in {IERC20-approve}. Emits an {Approval} event indicating the updated allowance. Requirements: - `spender` cannot be the zero address. - `spender` must have allowance for the caller of at least `subtractedValue`."
      },
      "increaseAllowance(address,uint256)": {
        "details": "Atomically increases the allowance granted to `spender` by the caller. This is an alternative to {approve} that can be used as a mitigation for problems described in {IERC20-approve}. Emits an {Approval} event indicating the updated allowance. Requirements: - `spender` cannot be the zero address."
      },
      "name()": {
        "details": "Returns the name of the token."
      },
      "symbol()": {
        "details": "Returns the symbol of the token, usually a shorter version of the name."
      },
      "totalSupply()": {
        "details": "See {IERC20-totalSupply}."
      },
      "transfer(address,uint256)": {
        "details": "See {IERC20-transfer}. Requirements: - `recipient` cannot be the zero address. - the caller must have a balance of at least `amount`."
      },
      "transferFrom(address,address,uint256)": {
        "details": "See {IERC20-transferFrom}. Emits an {Approval} event indicating the updated allowance. This is not required by the EIP. See the note at the beginning of {ERC20}; Requirements: - `sender` and `recipient` cannot be the zero address. - `sender` must have a balance of at least `amount`. - the caller must have allowance for ``sender``'s tokens of at least `amount`."
      }
    },
    "version": 1
  },
  "userdoc": {
    "kind": "user",
    "methods": {},
    "version": 1
  }
}