{
  "contractName": "YDVRewardsDistributor",
  "abi": [
    {
      "inputs": [
        {
          "internalType": "address",
          "name": "_rally",
          "type": "address"
        }
      ],
      "stateMutability": "nonpayable",
      "type": "constructor"
    },
    {
      "anonymous": false,
      "inputs": [
        {
          "indexed": true,
          "internalType": "address",
          "name": "previousOwner",
          "type": "address"
        },
        {
          "indexed": true,
          "internalType": "address",
          "name": "newOwner",
          "type": "address"
        }
      ],
      "name": "OwnershipTransferred",
      "type": "event"
    },
    {
      "anonymous": false,
      "inputs": [
        {
          "indexed": true,
          "internalType": "bytes32",
          "name": "role",
          "type": "bytes32"
        },
        {
          "indexed": true,
          "internalType": "bytes32",
          "name": "previousAdminRole",
          "type": "bytes32"
        },
        {
          "indexed": true,
          "internalType": "bytes32",
          "name": "newAdminRole",
          "type": "bytes32"
        }
      ],
      "name": "RoleAdminChanged",
      "type": "event"
    },
    {
      "anonymous": false,
      "inputs": [
        {
          "indexed": true,
          "internalType": "bytes32",
          "name": "role",
          "type": "bytes32"
        },
        {
          "indexed": true,
          "internalType": "address",
          "name": "account",
          "type": "address"
        },
        {
          "indexed": true,
          "internalType": "address",
          "name": "sender",
          "type": "address"
        }
      ],
      "name": "RoleGranted",
      "type": "event"
    },
    {
      "anonymous": false,
      "inputs": [
        {
          "indexed": true,
          "internalType": "bytes32",
          "name": "role",
          "type": "bytes32"
        },
        {
          "indexed": true,
          "internalType": "address",
          "name": "account",
          "type": "address"
        },
        {
          "indexed": true,
          "internalType": "address",
          "name": "sender",
          "type": "address"
        }
      ],
      "name": "RoleRevoked",
      "type": "event"
    },
    {
      "inputs": [],
      "name": "DEFAULT_ADMIN_ROLE",
      "outputs": [
        {
          "internalType": "bytes32",
          "name": "",
          "type": "bytes32"
        }
      ],
      "stateMutability": "view",
      "type": "function",
      "constant": true
    },
    {
      "inputs": [],
      "name": "YDV_REWARDS",
      "outputs": [
        {
          "internalType": "bytes32",
          "name": "",
          "type": "bytes32"
        }
      ],
      "stateMutability": "view",
      "type": "function",
      "constant": true
    },
    {
      "inputs": [
        {
          "internalType": "bytes32",
          "name": "role",
          "type": "bytes32"
        }
      ],
      "name": "getRoleAdmin",
      "outputs": [
        {
          "internalType": "bytes32",
          "name": "",
          "type": "bytes32"
        }
      ],
      "stateMutability": "view",
      "type": "function",
      "constant": true
    },
    {
      "inputs": [
        {
          "internalType": "bytes32",
          "name": "role",
          "type": "bytes32"
        },
        {
          "internalType": "uint256",
          "name": "index",
          "type": "uint256"
        }
      ],
      "name": "getRoleMember",
      "outputs": [
        {
          "internalType": "address",
          "name": "",
          "type": "address"
        }
      ],
      "stateMutability": "view",
      "type": "function",
      "constant": true
    },
    {
      "inputs": [
        {
          "internalType": "bytes32",
          "name": "role",
          "type": "bytes32"
        }
      ],
      "name": "getRoleMemberCount",
      "outputs": [
        {
          "internalType": "uint256",
          "name": "",
          "type": "uint256"
        }
      ],
      "stateMutability": "view",
      "type": "function",
      "constant": true
    },
    {
      "inputs": [
        {
          "internalType": "bytes32",
          "name": "role",
          "type": "bytes32"
        },
        {
          "internalType": "address",
          "name": "account",
          "type": "address"
        }
      ],
      "name": "grantRole",
      "outputs": [],
      "stateMutability": "nonpayable",
      "type": "function"
    },
    {
      "inputs": [
        {
          "internalType": "bytes32",
          "name": "role",
          "type": "bytes32"
        },
        {
          "internalType": "address",
          "name": "account",
          "type": "address"
        }
      ],
      "name": "hasRole",
      "outputs": [
        {
          "internalType": "bool",
          "name": "",
          "type": "bool"
        }
      ],
      "stateMutability": "view",
      "type": "function",
      "constant": true
    },
    {
      "inputs": [],
      "name": "owner",
      "outputs": [
        {
          "internalType": "address",
          "name": "",
          "type": "address"
        }
      ],
      "stateMutability": "view",
      "type": "function",
      "constant": true
    },
    {
      "inputs": [],
      "name": "renounceOwnership",
      "outputs": [],
      "stateMutability": "nonpayable",
      "type": "function"
    },
    {
      "inputs": [
        {
          "internalType": "bytes32",
          "name": "role",
          "type": "bytes32"
        },
        {
          "internalType": "address",
          "name": "account",
          "type": "address"
        }
      ],
      "name": "renounceRole",
      "outputs": [],
      "stateMutability": "nonpayable",
      "type": "function"
    },
    {
      "inputs": [
        {
          "internalType": "bytes32",
          "name": "role",
          "type": "bytes32"
        },
        {
          "internalType": "address",
          "name": "account",
          "type": "address"
        }
      ],
      "name": "revokeRole",
      "outputs": [],
      "stateMutability": "nonpayable",
      "type": "function"
    },
    {
      "inputs": [],
      "name": "rewardToken",
      "outputs": [
        {
          "internalType": "contract IERC20",
          "name": "",
          "type": "address"
        }
      ],
      "stateMutability": "view",
      "type": "function",
      "constant": true
    },
    {
      "inputs": [
        {
          "internalType": "address",
          "name": "newOwner",
          "type": "address"
        }
      ],
      "name": "transferOwnership",
      "outputs": [],
      "stateMutability": "nonpayable",
      "type": "function"
    },
    {
      "inputs": [
        {
          "internalType": "uint256",
          "name": "",
          "type": "uint256"
        }
      ],
      "name": "ydvs",
      "outputs": [
        {
          "internalType": "address",
          "name": "",
          "type": "address"
        }
      ],
      "stateMutability": "view",
      "type": "function",
      "constant": true
    },
    {
      "inputs": [
        {
          "internalType": "uint256",
          "name": "_amount",
          "type": "uint256"
        }
      ],
      "name": "transferReward",
      "outputs": [],
      "stateMutability": "nonpayable",
      "type": "function"
    },
    {
      "inputs": [
        {
          "internalType": "address",
          "name": "_ydv",
          "type": "address"
        }
      ],
      "name": "addYDV",
      "outputs": [],
      "stateMutability": "nonpayable",
      "type": "function"
    },
    {
      "inputs": [],
      "name": "ydvsLength",
      "outputs": [
        {
          "internalType": "uint256",
          "name": "",
          "type": "uint256"
        }
      ],
      "stateMutability": "view",
      "type": "function",
      "constant": true
    }
  ],
  "bytecode": "0x60806040523480156200001157600080fd5b50604051620010eb380380620010eb833981810160405260208110156200003757600080fd5b5051600062000045620000c2565b600180546001600160a01b0319166001600160a01b038316908117909155604051919250906000907f8be0079c531659141344cd1fd0a4f28419497f9722a3daafe3b4186f6b6457e0908290a350600280546001600160a01b0319166001600160a01b038316179055620000bb600033620000c6565b50620001d6565b3390565b620000d28282620000d6565b5050565b600082815260208181526040909120620000fb918390620008436200014f821b17901c565b15620000d2576200010b620000c2565b6001600160a01b0316816001600160a01b0316837f2f8788117e7eff1d82e926ec794901d17c78024a50270940304540a733656f0d60405160405180910390a45050565b600062000166836001600160a01b0384166200016f565b90505b92915050565b60006200017d8383620001be565b620001b55750815460018181018455600084815260208082209093018490558454848252828601909352604090209190915562000169565b50600062000169565b60009081526001919091016020526040902054151590565b610f0580620001e66000396000f3fe608060405234801561001057600080fd5b506004361061010b5760003560e01c8063a217fddf116100a2578063ca15c87311610071578063ca15c87314610283578063d547741f146102a0578063f2fde38b146102cc578063f7c618c1146102f2578063fc3f411c146102fa5761010b565b8063a217fddf1461024e578063b428742014610256578063b53e07c41461025e578063b99a1bb81461027b5761010b565b806378e50744116100de57806378e50744146101a15780638da5cb5b146101c75780639010d07c146101eb57806391d148541461020e5761010b565b8063248a9ca3146101105780632f2ff15d1461013f57806336568abe1461016d578063715018a614610199575b600080fd5b61012d6004803603602081101561012657600080fd5b5035610317565b60408051918252519081900360200190f35b61016b6004803603604081101561015557600080fd5b50803590602001356001600160a01b031661032c565b005b61016b6004803603604081101561018357600080fd5b50803590602001356001600160a01b0316610398565b61016b6103f9565b61016b600480360360208110156101b757600080fd5b50356001600160a01b03166104ad565b6101cf610593565b604080516001600160a01b039092168252519081900360200190f35b6101cf6004803603604081101561020157600080fd5b50803590602001356105a2565b61023a6004803603604081101561022457600080fd5b50803590602001356001600160a01b03166105c3565b604080519115158252519081900360200190f35b61012d6105db565b61012d6105e0565b61016b6004803603602081101561027457600080fd5b50356105e6565b61012d61066e565b61012d6004803603602081101561029957600080fd5b5035610692565b61016b600480360360408110156102b657600080fd5b50803590602001356001600160a01b03166106a9565b61016b600480360360208110156102e257600080fd5b50356001600160a01b0316610702565b6101cf61080d565b6101cf6004803603602081101561031057600080fd5b503561081c565b60009081526020819052604090206002015490565b60008281526020819052604090206002015461034f9061034a610858565b6105c3565b61038a5760405162461bcd60e51b815260040180806020018281038252602f815260200180610df2602f913960400191505060405180910390fd5b610394828261085c565b5050565b6103a0610858565b6001600160a01b0316816001600160a01b0316146103ef5760405162461bcd60e51b815260040180806020018281038252602f815260200180610ea1602f913960400191505060405180910390fd5b61039482826108c5565b610401610858565b6001546001600160a01b03908116911614610463576040805162461bcd60e51b815260206004820181905260248201527f4f776e61626c653a2063616c6c6572206973206e6f7420746865206f776e6572604482015290519081900360640190fd5b6001546040516000916001600160a01b0316907f8be0079c531659141344cd1fd0a4f28419497f9722a3daafe3b4186f6b6457e0908390a3600180546001600160a01b0319169055565b6104b5610858565b6001546001600160a01b03908116911614610517576040805162461bcd60e51b815260206004820181905260248201527f4f776e61626c653a2063616c6c6572206973206e6f7420746865206f776e6572604482015290519081900360640190fd5b6105417f85b198fd56726b64776fbc4e27131c884bfe3ab253bef8a666f22a6d2b6103ef8261032c565b600380546001810182556000919091527fc2575a0e9e593c00f959f8c92f12db2869c3395a3b0502d05e2516446f71f85b0180546001600160a01b0319166001600160a01b0392909216919091179055565b6001546001600160a01b031690565b60008281526020819052604081206105ba908361092e565b90505b92915050565b60008281526020819052604081206105ba908361093a565b600081565b60035490565b6106107f85b198fd56726b64776fbc4e27131c884bfe3ab253bef8a666f22a6d2b6103ef336105c3565b610654576040805162461bcd60e51b815260206004820152601060248201526f6f6e6c7920796476207265776172647360801b604482015290519081900360640190fd5b60025461066b906001600160a01b0316338361094f565b50565b7f85b198fd56726b64776fbc4e27131c884bfe3ab253bef8a666f22a6d2b6103ef81565b60008181526020819052604081206105bd906109a6565b6000828152602081905260409020600201546106c79061034a610858565b6103ef5760405162461bcd60e51b8152600401808060200182810382526030815260200180610e476030913960400191505060405180910390fd5b61070a610858565b6001546001600160a01b0390811691161461076c576040805162461bcd60e51b815260206004820181905260248201527f4f776e61626c653a2063616c6c6572206973206e6f7420746865206f776e6572604482015290519081900360640190fd5b6001600160a01b0381166107b15760405162461bcd60e51b8152600401808060200182810382526026815260200180610e216026913960400191505060405180910390fd5b6001546040516001600160a01b038084169216907f8be0079c531659141344cd1fd0a4f28419497f9722a3daafe3b4186f6b6457e090600090a3600180546001600160a01b0319166001600160a01b0392909216919091179055565b6002546001600160a01b031681565b6003818154811061082957fe5b6000918252602090912001546001600160a01b0316905081565b60006105ba836001600160a01b0384166109b1565b3390565b60008281526020819052604090206108749082610843565b1561039457610881610858565b6001600160a01b0316816001600160a01b0316837f2f8788117e7eff1d82e926ec794901d17c78024a50270940304540a733656f0d60405160405180910390a45050565b60008281526020819052604090206108dd90826109fb565b15610394576108ea610858565b6001600160a01b0316816001600160a01b0316837ff6391f5c32d9c69d2a47ea670b442974b53935d1edc7fd64eb21e047a839171b60405160405180910390a45050565b60006105ba8383610a10565b60006105ba836001600160a01b038416610a74565b604080516001600160a01b038416602482015260448082018490528251808303909101815260649091019091526020810180516001600160e01b031663a9059cbb60e01b1790526109a1908490610a8c565b505050565b60006105bd82610b3d565b60006109bd8383610a74565b6109f3575081546001818101845560008481526020808220909301849055845484825282860190935260409020919091556105bd565b5060006105bd565b60006105ba836001600160a01b038416610b41565b81546000908210610a525760405162461bcd60e51b8152600401808060200182810382526022815260200180610dd06022913960400191505060405180910390fd5b826000018281548110610a6157fe5b9060005260206000200154905092915050565b60009081526001919091016020526040902054151590565b6060610ae1826040518060400160405280602081526020017f5361666545524332303a206c6f772d6c6576656c2063616c6c206661696c6564815250856001600160a01b0316610c079092919063ffffffff16565b8051909150156109a157808060200190516020811015610b0057600080fd5b50516109a15760405162461bcd60e51b815260040180806020018281038252602a815260200180610e77602a913960400191505060405180910390fd5b5490565b60008181526001830160205260408120548015610bfd5783546000198083019190810190600090879083908110610b7457fe5b9060005260206000200154905080876000018481548110610b9157fe5b600091825260208083209091019290925582815260018981019092526040902090840190558654879080610bc157fe5b600190038181906000526020600020016000905590558660010160008781526020019081526020016000206000905560019450505050506105bd565b60009150506105bd565b6060610c168484600085610c1e565b949350505050565b6060610c2985610dc9565b610c7a576040805162461bcd60e51b815260206004820152601d60248201527f416464726573733a2063616c6c20746f206e6f6e2d636f6e7472616374000000604482015290519081900360640190fd5b60006060866001600160a01b031685876040518082805190602001908083835b60208310610cb95780518252601f199092019160209182019101610c9a565b6001836020036101000a03801982511681845116808217855250505050505090500191505060006040518083038185875af1925050503d8060008114610d1b576040519150601f19603f3d011682016040523d82523d6000602084013e610d20565b606091505b50915091508115610d34579150610c169050565b805115610d445780518082602001fd5b8360405162461bcd60e51b81526004018080602001828103825283818151815260200191508051906020019080838360005b83811015610d8e578181015183820152602001610d76565b50505050905090810190601f168015610dbb5780820380516001836020036101000a031916815260200191505b509250505060405180910390fd5b3b15159056fe456e756d657261626c655365743a20696e646578206f7574206f6620626f756e6473416363657373436f6e74726f6c3a2073656e646572206d75737420626520616e2061646d696e20746f206772616e744f776e61626c653a206e6577206f776e657220697320746865207a65726f2061646472657373416363657373436f6e74726f6c3a2073656e646572206d75737420626520616e2061646d696e20746f207265766f6b655361666545524332303a204552433230206f7065726174696f6e20646964206e6f742073756363656564416363657373436f6e74726f6c3a2063616e206f6e6c792072656e6f756e636520726f6c657320666f722073656c66a26469706673582212202bce7e229fb9250606fcaba574bc501b2d88cf78986167898d1069bbf45df8ec64736f6c634300060c0033",
  "immutableReferences": {},
  "source": "// SPDX-License-Identifier: MIT\npragma solidity ^0.6.2;\n\nimport \"@openzeppelin/contracts/access/AccessControl.sol\";\nimport \"@openzeppelin/contracts/token/ERC20/IERC20.sol\";\nimport \"@openzeppelin/contracts/utils/Address.sol\";\nimport \"@openzeppelin/contracts/token/ERC20/SafeERC20.sol\";\nimport \"@openzeppelin/contracts/access/Ownable.sol\";\n\ncontract YDVRewardsDistributor is AccessControl, Ownable {\n    using SafeERC20 for IERC20;\n    using Address for address;\n\n    IERC20 public rewardToken;\n    address[] public ydvs;\n    bytes32 public constant YDV_REWARDS = keccak256(\"YDV_REWARDS\");\n    \n    constructor(address _rally) public {\n        rewardToken = IERC20(_rally);\n        _setupRole(DEFAULT_ADMIN_ROLE, msg.sender);\n    }\n\n    function transferReward(uint256 _amount) external {\n        require (hasRole(YDV_REWARDS, msg.sender), \"only ydv rewards\");\n        rewardToken.safeTransfer(msg.sender, _amount);\n    }\n\n    function addYDV(address _ydv) external onlyOwner {\n        grantRole(YDV_REWARDS, _ydv);\n        ydvs.push(_ydv);\n    }\n\n    function ydvsLength() external view returns (uint256) {\n        return ydvs.length;\n    }\n}\n",
  "sourcePath": "/Users/aranade/Development/yield-delegation/contracts/YDVRewardsDistributor.sol",
  "compiler": {
    "name": "solc",
    "version": "0.6.12+commit.27d51765.Emscripten.clang"
  },
  "schemaVersion": "3.2.3",
  "updatedAt": "2020-10-06T04:57:07.686Z",
  "networkType": "ethereum",
  "devdoc": {
    "kind": "dev",
    "methods": {
      "getRoleAdmin(bytes32)": {
        "details": "Returns the admin role that controls `role`. See {grantRole} and {revokeRole}. To change a role's admin, use {_setRoleAdmin}."
      },
      "getRoleMember(bytes32,uint256)": {
        "details": "Returns one of the accounts that have `role`. `index` must be a value between 0 and {getRoleMemberCount}, non-inclusive. Role bearers are not sorted in any particular way, and their ordering may change at any point. WARNING: When using {getRoleMember} and {getRoleMemberCount}, make sure you perform all queries on the same block. See the following https://forum.openzeppelin.com/t/iterating-over-elements-on-enumerableset-in-openzeppelin-contracts/2296[forum post] for more information."
      },
      "getRoleMemberCount(bytes32)": {
        "details": "Returns the number of accounts that have `role`. Can be used together with {getRoleMember} to enumerate all bearers of a role."
      },
      "grantRole(bytes32,address)": {
        "details": "Grants `role` to `account`. If `account` had not been already granted `role`, emits a {RoleGranted} event. Requirements: - the caller must have ``role``'s admin role."
      },
      "hasRole(bytes32,address)": {
        "details": "Returns `true` if `account` has been granted `role`."
      },
      "owner()": {
        "details": "Returns the address of the current owner."
      },
      "renounceOwnership()": {
        "details": "Leaves the contract without owner. It will not be possible to call `onlyOwner` functions anymore. Can only be called by the current owner. NOTE: Renouncing ownership will leave the contract without an owner, thereby removing any functionality that is only available to the owner."
      },
      "renounceRole(bytes32,address)": {
        "details": "Revokes `role` from the calling account. Roles are often managed via {grantRole} and {revokeRole}: this function's purpose is to provide a mechanism for accounts to lose their privileges if they are compromised (such as when a trusted device is misplaced). If the calling account had been granted `role`, emits a {RoleRevoked} event. Requirements: - the caller must be `account`."
      },
      "revokeRole(bytes32,address)": {
        "details": "Revokes `role` from `account`. If `account` had been granted `role`, emits a {RoleRevoked} event. Requirements: - the caller must have ``role``'s admin role."
      },
      "transferOwnership(address)": {
        "details": "Transfers ownership of the contract to a new account (`newOwner`). Can only be called by the current owner."
      }
    },
    "version": 1
  },
  "userdoc": {
    "kind": "user",
    "methods": {},
    "version": 1
  }
}