{
  "contractName": "YieldDelegatingVault",
  "abi": [
    {
      "inputs": [
        {
          "internalType": "address",
          "name": "_vault",
          "type": "address"
        },
        {
          "internalType": "address",
          "name": "_rewards",
          "type": "address"
        },
        {
          "internalType": "address",
          "name": "_treasury",
          "type": "address"
        },
        {
          "internalType": "uint256",
          "name": "_delegatePercent",
          "type": "uint256"
        },
        {
          "internalType": "uint256",
          "name": "_globalDepositCap",
          "type": "uint256"
        },
        {
          "internalType": "uint256",
          "name": "_individualDepositCap",
          "type": "uint256"
        }
      ],
      "stateMutability": "nonpayable",
      "type": "constructor"
    },
    {
      "anonymous": false,
      "inputs": [
        {
          "indexed": true,
          "internalType": "address",
          "name": "owner",
          "type": "address"
        },
        {
          "indexed": true,
          "internalType": "address",
          "name": "spender",
          "type": "address"
        },
        {
          "indexed": false,
          "internalType": "uint256",
          "name": "value",
          "type": "uint256"
        }
      ],
      "name": "Approval",
      "type": "event"
    },
    {
      "anonymous": false,
      "inputs": [
        {
          "indexed": false,
          "internalType": "uint256",
          "name": "error",
          "type": "uint256"
        },
        {
          "indexed": false,
          "internalType": "uint256",
          "name": "info",
          "type": "uint256"
        },
        {
          "indexed": false,
          "internalType": "uint256",
          "name": "detail",
          "type": "uint256"
        }
      ],
      "name": "Failure",
      "type": "event"
    },
    {
      "anonymous": false,
      "inputs": [
        {
          "indexed": false,
          "internalType": "uint256",
          "name": "oldDelegatePercent",
          "type": "uint256"
        },
        {
          "indexed": false,
          "internalType": "uint256",
          "name": "newDelegatePercent",
          "type": "uint256"
        }
      ],
      "name": "NewDelegatePercent",
      "type": "event"
    },
    {
      "anonymous": false,
      "inputs": [
        {
          "indexed": false,
          "internalType": "uint256",
          "name": "oldGlobalDepositCap",
          "type": "uint256"
        },
        {
          "indexed": false,
          "internalType": "uint256",
          "name": "newGlobalDepositCap",
          "type": "uint256"
        }
      ],
      "name": "NewGlobalDepositCap",
      "type": "event"
    },
    {
      "anonymous": false,
      "inputs": [
        {
          "indexed": false,
          "internalType": "uint256",
          "name": "oldInvidivualDepositCap",
          "type": "uint256"
        },
        {
          "indexed": false,
          "internalType": "uint256",
          "name": "newInvidivualDepositCap",
          "type": "uint256"
        }
      ],
      "name": "NewIndividualDepositCap",
      "type": "event"
    },
    {
      "anonymous": false,
      "inputs": [
        {
          "indexed": false,
          "internalType": "uint256",
          "name": "oldRewardPerToken",
          "type": "uint256"
        },
        {
          "indexed": false,
          "internalType": "uint256",
          "name": "newRewardPerToken",
          "type": "uint256"
        }
      ],
      "name": "NewRewardPerToken",
      "type": "event"
    },
    {
      "anonymous": false,
      "inputs": [
        {
          "indexed": false,
          "internalType": "address",
          "name": "oldTreasury",
          "type": "address"
        },
        {
          "indexed": false,
          "internalType": "address",
          "name": "newTreasury",
          "type": "address"
        }
      ],
      "name": "NewTreasury",
      "type": "event"
    },
    {
      "anonymous": false,
      "inputs": [
        {
          "indexed": true,
          "internalType": "address",
          "name": "previousOwner",
          "type": "address"
        },
        {
          "indexed": true,
          "internalType": "address",
          "name": "newOwner",
          "type": "address"
        }
      ],
      "name": "OwnershipTransferred",
      "type": "event"
    },
    {
      "anonymous": false,
      "inputs": [
        {
          "indexed": false,
          "internalType": "address",
          "name": "account",
          "type": "address"
        },
        {
          "indexed": false,
          "internalType": "uint256",
          "name": "reward",
          "type": "uint256"
        }
      ],
      "name": "RewardPaid",
      "type": "event"
    },
    {
      "anonymous": false,
      "inputs": [
        {
          "indexed": true,
          "internalType": "address",
          "name": "from",
          "type": "address"
        },
        {
          "indexed": true,
          "internalType": "address",
          "name": "to",
          "type": "address"
        },
        {
          "indexed": false,
          "internalType": "uint256",
          "name": "value",
          "type": "uint256"
        }
      ],
      "name": "Transfer",
      "type": "event"
    },
    {
      "inputs": [],
      "name": "accRallyPerShare",
      "outputs": [
        {
          "internalType": "uint256",
          "name": "",
          "type": "uint256"
        }
      ],
      "stateMutability": "view",
      "type": "function",
      "constant": true
    },
    {
      "inputs": [
        {
          "internalType": "address",
          "name": "owner",
          "type": "address"
        },
        {
          "internalType": "address",
          "name": "spender",
          "type": "address"
        }
      ],
      "name": "allowance",
      "outputs": [
        {
          "internalType": "uint256",
          "name": "",
          "type": "uint256"
        }
      ],
      "stateMutability": "view",
      "type": "function",
      "constant": true
    },
    {
      "inputs": [
        {
          "internalType": "address",
          "name": "spender",
          "type": "address"
        },
        {
          "internalType": "uint256",
          "name": "amount",
          "type": "uint256"
        }
      ],
      "name": "approve",
      "outputs": [
        {
          "internalType": "bool",
          "name": "",
          "type": "bool"
        }
      ],
      "stateMutability": "nonpayable",
      "type": "function"
    },
    {
      "inputs": [
        {
          "internalType": "address",
          "name": "account",
          "type": "address"
        }
      ],
      "name": "balanceOf",
      "outputs": [
        {
          "internalType": "uint256",
          "name": "",
          "type": "uint256"
        }
      ],
      "stateMutability": "view",
      "type": "function",
      "constant": true
    },
    {
      "inputs": [],
      "name": "controller",
      "outputs": [
        {
          "internalType": "address",
          "name": "",
          "type": "address"
        }
      ],
      "stateMutability": "view",
      "type": "function",
      "constant": true
    },
    {
      "inputs": [],
      "name": "decimals",
      "outputs": [
        {
          "internalType": "uint8",
          "name": "",
          "type": "uint8"
        }
      ],
      "stateMutability": "view",
      "type": "function",
      "constant": true
    },
    {
      "inputs": [
        {
          "internalType": "address",
          "name": "spender",
          "type": "address"
        },
        {
          "internalType": "uint256",
          "name": "subtractedValue",
          "type": "uint256"
        }
      ],
      "name": "decreaseAllowance",
      "outputs": [
        {
          "internalType": "bool",
          "name": "",
          "type": "bool"
        }
      ],
      "stateMutability": "nonpayable",
      "type": "function"
    },
    {
      "inputs": [],
      "name": "delegatePercent",
      "outputs": [
        {
          "internalType": "uint256",
          "name": "",
          "type": "uint256"
        }
      ],
      "stateMutability": "view",
      "type": "function",
      "constant": true
    },
    {
      "inputs": [],
      "name": "globalDepositCap",
      "outputs": [
        {
          "internalType": "uint256",
          "name": "",
          "type": "uint256"
        }
      ],
      "stateMutability": "view",
      "type": "function",
      "constant": true
    },
    {
      "inputs": [
        {
          "internalType": "address",
          "name": "spender",
          "type": "address"
        },
        {
          "internalType": "uint256",
          "name": "addedValue",
          "type": "uint256"
        }
      ],
      "name": "increaseAllowance",
      "outputs": [
        {
          "internalType": "bool",
          "name": "",
          "type": "bool"
        }
      ],
      "stateMutability": "nonpayable",
      "type": "function"
    },
    {
      "inputs": [],
      "name": "individualDepositCap",
      "outputs": [
        {
          "internalType": "uint256",
          "name": "",
          "type": "uint256"
        }
      ],
      "stateMutability": "view",
      "type": "function",
      "constant": true
    },
    {
      "inputs": [],
      "name": "name",
      "outputs": [
        {
          "internalType": "string",
          "name": "",
          "type": "string"
        }
      ],
      "stateMutability": "view",
      "type": "function",
      "constant": true
    },
    {
      "inputs": [],
      "name": "owner",
      "outputs": [
        {
          "internalType": "address",
          "name": "",
          "type": "address"
        }
      ],
      "stateMutability": "view",
      "type": "function",
      "constant": true
    },
    {
      "inputs": [],
      "name": "rally",
      "outputs": [
        {
          "internalType": "contract IERC20",
          "name": "",
          "type": "address"
        }
      ],
      "stateMutability": "view",
      "type": "function",
      "constant": true
    },
    {
      "inputs": [],
      "name": "renounceOwnership",
      "outputs": [],
      "stateMutability": "nonpayable",
      "type": "function"
    },
    {
      "inputs": [
        {
          "internalType": "address",
          "name": "",
          "type": "address"
        }
      ],
      "name": "rewardDebt",
      "outputs": [
        {
          "internalType": "uint256",
          "name": "",
          "type": "uint256"
        }
      ],
      "stateMutability": "view",
      "type": "function",
      "constant": true
    },
    {
      "inputs": [],
      "name": "rewardPerToken",
      "outputs": [
        {
          "internalType": "uint256",
          "name": "",
          "type": "uint256"
        }
      ],
      "stateMutability": "view",
      "type": "function",
      "constant": true
    },
    {
      "inputs": [],
      "name": "symbol",
      "outputs": [
        {
          "internalType": "string",
          "name": "",
          "type": "string"
        }
      ],
      "stateMutability": "view",
      "type": "function",
      "constant": true
    },
    {
      "inputs": [],
      "name": "token",
      "outputs": [
        {
          "internalType": "contract IERC20",
          "name": "",
          "type": "address"
        }
      ],
      "stateMutability": "view",
      "type": "function",
      "constant": true
    },
    {
      "inputs": [],
      "name": "totalDeposits",
      "outputs": [
        {
          "internalType": "uint256",
          "name": "",
          "type": "uint256"
        }
      ],
      "stateMutability": "view",
      "type": "function",
      "constant": true
    },
    {
      "inputs": [],
      "name": "totalSupply",
      "outputs": [
        {
          "internalType": "uint256",
          "name": "",
          "type": "uint256"
        }
      ],
      "stateMutability": "view",
      "type": "function",
      "constant": true
    },
    {
      "inputs": [
        {
          "internalType": "address",
          "name": "recipient",
          "type": "address"
        },
        {
          "internalType": "uint256",
          "name": "amount",
          "type": "uint256"
        }
      ],
      "name": "transfer",
      "outputs": [
        {
          "internalType": "bool",
          "name": "",
          "type": "bool"
        }
      ],
      "stateMutability": "nonpayable",
      "type": "function"
    },
    {
      "inputs": [
        {
          "internalType": "address",
          "name": "sender",
          "type": "address"
        },
        {
          "internalType": "address",
          "name": "recipient",
          "type": "address"
        },
        {
          "internalType": "uint256",
          "name": "amount",
          "type": "uint256"
        }
      ],
      "name": "transferFrom",
      "outputs": [
        {
          "internalType": "bool",
          "name": "",
          "type": "bool"
        }
      ],
      "stateMutability": "nonpayable",
      "type": "function"
    },
    {
      "inputs": [
        {
          "internalType": "address",
          "name": "newOwner",
          "type": "address"
        }
      ],
      "name": "transferOwnership",
      "outputs": [],
      "stateMutability": "nonpayable",
      "type": "function"
    },
    {
      "inputs": [],
      "name": "treasury",
      "outputs": [
        {
          "internalType": "address",
          "name": "",
          "type": "address"
        }
      ],
      "stateMutability": "view",
      "type": "function",
      "constant": true
    },
    {
      "inputs": [],
      "name": "vault",
      "outputs": [
        {
          "internalType": "address",
          "name": "",
          "type": "address"
        }
      ],
      "stateMutability": "view",
      "type": "function",
      "constant": true
    },
    {
      "inputs": [
        {
          "internalType": "address",
          "name": "newTreasury",
          "type": "address"
        }
      ],
      "name": "setTreasury",
      "outputs": [],
      "stateMutability": "nonpayable",
      "type": "function"
    },
    {
      "inputs": [
        {
          "internalType": "uint256",
          "name": "newGlobalDepositCap",
          "type": "uint256"
        }
      ],
      "name": "setGlobalDepositCap",
      "outputs": [],
      "stateMutability": "nonpayable",
      "type": "function"
    },
    {
      "inputs": [
        {
          "internalType": "uint256",
          "name": "newIndividualDepositCap",
          "type": "uint256"
        }
      ],
      "name": "setIndividualDepositCap",
      "outputs": [],
      "stateMutability": "nonpayable",
      "type": "function"
    },
    {
      "inputs": [
        {
          "internalType": "uint256",
          "name": "newRewardPerToken",
          "type": "uint256"
        }
      ],
      "name": "setNewRewardPerToken",
      "outputs": [],
      "stateMutability": "nonpayable",
      "type": "function"
    },
    {
      "inputs": [
        {
          "internalType": "address",
          "name": "account",
          "type": "address"
        }
      ],
      "name": "earned",
      "outputs": [
        {
          "internalType": "uint256",
          "name": "",
          "type": "uint256"
        }
      ],
      "stateMutability": "view",
      "type": "function",
      "constant": true
    },
    {
      "inputs": [],
      "name": "balance",
      "outputs": [
        {
          "internalType": "uint256",
          "name": "",
          "type": "uint256"
        }
      ],
      "stateMutability": "view",
      "type": "function",
      "constant": true
    },
    {
      "inputs": [],
      "name": "depositAll",
      "outputs": [],
      "stateMutability": "nonpayable",
      "type": "function"
    },
    {
      "inputs": [
        {
          "internalType": "uint256",
          "name": "_amount",
          "type": "uint256"
        }
      ],
      "name": "deposit",
      "outputs": [
        {
          "internalType": "uint256",
          "name": "",
          "type": "uint256"
        }
      ],
      "stateMutability": "nonpayable",
      "type": "function"
    },
    {
      "inputs": [
        {
          "internalType": "uint256",
          "name": "_yamount",
          "type": "uint256"
        }
      ],
      "name": "deposityToken",
      "outputs": [
        {
          "internalType": "uint256",
          "name": "",
          "type": "uint256"
        }
      ],
      "stateMutability": "nonpayable",
      "type": "function"
    },
    {
      "inputs": [],
      "name": "withdrawAll",
      "outputs": [],
      "stateMutability": "nonpayable",
      "type": "function"
    },
    {
      "inputs": [
        {
          "internalType": "uint256",
          "name": "_shares",
          "type": "uint256"
        }
      ],
      "name": "withdraw",
      "outputs": [],
      "stateMutability": "nonpayable",
      "type": "function"
    },
    {
      "inputs": [
        {
          "internalType": "uint256",
          "name": "_shares",
          "type": "uint256"
        }
      ],
      "name": "withdrawyToken",
      "outputs": [],
      "stateMutability": "nonpayable",
      "type": "function"
    },
    {
      "inputs": [],
      "name": "availableYield",
      "outputs": [
        {
          "internalType": "uint256",
          "name": "",
          "type": "uint256"
        }
      ],
      "stateMutability": "view",
      "type": "function",
      "constant": true
    },
    {
      "inputs": [],
      "name": "harvest",
      "outputs": [],
      "stateMutability": "nonpayable",
      "type": "function"
    }
  ],
  "bytecode": "0x60806040523480156200001157600080fd5b506040516200309338038062003093833981810160405260c08110156200003757600080fd5b5080516020808301516040808501516060860151608087015160a0909701518351637e062a3560e11b8152935196979496929591949390926001600160a01b0389169263fc0c546a9260048082019391829003018186803b1580156200009c57600080fd5b505afa158015620000b1573d6000803e3d6000fd5b505050506040513d6020811015620000c857600080fd5b5051604080516306fdde0360e01b815290516001600160a01b03909216916306fdde0391600480820192600092909190829003018186803b1580156200010d57600080fd5b505afa15801562000122573d6000803e3d6000fd5b505050506040513d6000823e601f3d908101601f1916820160405260208110156200014c57600080fd5b81019080805160405193929190846401000000008211156200016d57600080fd5b9083019060208201858111156200018357600080fd5b82516401000000008111828201881017156200019e57600080fd5b82525081516020918201929091019080838360005b83811015620001cd578181015183820152602001620001b3565b50505050905090810190601f168015620001fb5780820380516001836020036101000a031916815260200191505b5060405250505060405160200180807003930b6363c903232b632b3b0ba34b7339607d1b81525060110182805190602001908083835b60208310620002525780518252601f19909201916020918201910162000231565b6001836020036101000a038019825116818451168082178552505050505050905001915050604051602081830303815290604052866001600160a01b031663fc0c546a6040518163ffffffff1660e01b815260040160206040518083038186803b158015620002c057600080fd5b505afa158015620002d5573d6000803e3d6000fd5b505050506040513d6020811015620002ec57600080fd5b5051604080516395d89b4160e01b815290516001600160a01b03909216916395d89b4191600480820192600092909190829003018186803b1580156200033157600080fd5b505afa15801562000346573d6000803e3d6000fd5b505050506040513d6000823e601f3d908101601f1916820160405260208110156200037057600080fd5b81019080805160405193929190846401000000008211156200039157600080fd5b908301906020820185811115620003a757600080fd5b8251640100000000811182820188101715620003c257600080fd5b82525081516020918201929091019080838360005b83811015620003f1578181015183820152602001620003d7565b50505050905090810190601f1680156200041f5780820380516001836020036101000a031916815260200191505b506040525050506040516020018080611c9960f21b81525060020182805190602001908083835b60208310620004675780518252601f19909201916020918201910162000446565b6001836020036101000a0380198251168184511680821785525050505050509050019150506040516020818303038152906040528160039080519060200190620004b392919062000789565b508051620004c990600490602084019062000789565b50506005805460ff19166012179055506000620004e56200076f565b601280546001600160a01b0319166001600160a01b038316908117909155604051919250906000907f8be0079c531659141344cd1fd0a4f28419497f9722a3daafe3b4186f6b6457e0908290a35062000616866001600160a01b031663fc0c546a6040518163ffffffff1660e01b815260040160206040518083038186803b1580156200057157600080fd5b505afa15801562000586573d6000803e3d6000fd5b505050506040513d60208110156200059d57600080fd5b50516040805163313ce56760e01b815290516001600160a01b039092169163313ce56791600480820192602092909190829003018186803b158015620005e257600080fd5b505afa158015620005f7573d6000803e3d6000fd5b505050506040513d60208110156200060e57600080fd5b505162000773565b856001600160a01b031663fc0c546a6040518163ffffffff1660e01b815260040160206040518083038186803b1580156200065057600080fd5b505afa15801562000665573d6000803e3d6000fd5b505050506040513d60208110156200067c57600080fd5b5051600a80546001600160a01b03199081166001600160a01b03938416179091556006805482168984161790556007805490911687831617908190556040805163f7c618c160e01b81529051919092169163f7c618c1916004828101926020929190829003018186803b158015620006f357600080fd5b505afa15801562000708573d6000803e3d6000fd5b505050506040513d60208110156200071f57600080fd5b5051600880546001600160a01b039283166001600160a01b0319918216179091556009805496909216951694909417909355600b91909155600c55600d5550506000600f81905560115562000825565b3390565b6005805460ff191660ff92909216919091179055565b828054600181600116156101000203166002900490600052602060002090601f016020900481019282601f10620007cc57805160ff1916838001178555620007fc565b82800160010185558215620007fc579182015b82811115620007fc578251825591602001919060010190620007df565b506200080a9291506200080e565b5090565b5b808211156200080a57600081556001016200080f565b61285e80620008356000396000f3fe608060405234801561001057600080fd5b50600436106102465760003560e01c80637fd347971161013b578063cbb58bf7116100b8578063f2fde38b1161007c578063f2fde38b1461060c578063f77c479114610632578063f7e6a66a1461063a578063fbfa77cf14610657578063fc0c546a1461065f57610246565b8063cbb58bf7146105a0578063cd3daf9d146105a8578063dd62ed3e146105b0578063de5f6268146105de578063f0f44260146105e657610246565b8063a457c2d7116100ff578063a457c2d71461051b578063a9059cbb14610547578063b69ef8a814610573578063b6b55f251461057b578063bdeb56021461059857610246565b80637fd34797146104de578063853828b6146104e65780638da5cb5b146104ee57806393f52c85146104f657806395d89b411461051357610246565b8063313ce567116101c95780636b4965091161018d5780636b4965091461048357806370a082311461048b578063715018a6146104b15780637867dff5146104b95780637d882097146104d657610246565b8063313ce5671461040357806339509351146104215780634641257d1461044d5780635873eb9b1461045557806361d027b31461047b57610246565b80630d82c887116102105780630d82c88714610383578063175e439c146103a057806318160ddd146103a857806323b872dd146103b05780632e1a7d4d146103e657610246565b806230bffe1461024b5780628cc2621461026f57806306fdde03146102a7578063095ea7b31461032457806309920bad14610364575b600080fd5b610253610667565b604080516001600160a01b039092168252519081900360200190f35b6102956004803603602081101561028557600080fd5b50356001600160a01b0316610676565b60408051918252519081900360200190f35b6102af6106c9565b6040805160208082528351818301528351919283929083019185019080838360005b838110156102e95781810151838201526020016102d1565b50505050905090810190601f1680156103165780820380516001836020036101000a031916815260200191505b509250505060405180910390f35b6103506004803603604081101561033a57600080fd5b506001600160a01b038135169060200135610760565b604080519115158252519081900360200190f35b6103816004803603602081101561037a57600080fd5b503561077e565b005b6102956004803603602081101561039957600080fd5b503561081d565b610295610a63565b610295610bbc565b610350600480360360608110156103c657600080fd5b506001600160a01b03813581169160208101359091169060400135610bc2565b610381600480360360208110156103fc57600080fd5b5035610c49565b61040b610e46565b6040805160ff9092168252519081900360200190f35b6103506004803603604081101561043757600080fd5b506001600160a01b038135169060200135610e4f565b610381610e9d565b6102956004803603602081101561046b57600080fd5b50356001600160a01b0316611013565b610253611025565b610295611034565b610295600480360360208110156104a157600080fd5b50356001600160a01b031661103a565b610381611055565b610381600480360360208110156104cf57600080fd5b50356110f7565b610295611206565b61029561120c565b610381611212565b610253611225565b6103816004803603602081101561050c57600080fd5b5035611234565b6102af6112d3565b6103506004803603604081101561053157600080fd5b506001600160a01b038135169060200135611334565b6103506004803603604081101561055d57600080fd5b506001600160a01b03813516906020013561139c565b6102956113b0565b6102956004803603602081101561059157600080fd5b503561142c565b610295611743565b610295611749565b61029561174f565b610295600480360360408110156105c657600080fd5b506001600160a01b0381358116916020013516611755565b610381611780565b610381600480360360208110156105fc57600080fd5b50356001600160a01b03166117fd565b6103816004803603602081101561062257600080fd5b50356001600160a01b0316611913565b610253611a0c565b6103816004803603602081101561065057600080fd5b5035611a20565b610253611abf565b610253611ace565b6008546001600160a01b031681565b6001600160a01b0381166000908152600e60205260408120546011546106c191906106bb9064e8d4a51000906106b5906106af8861103a565b90611add565b90611b3d565b90611b7f565b90505b919050565b60038054604080516020601f60026000196101006001881615020190951694909404938401819004810282018101909252828152606093909290918301828280156107555780601f1061072a57610100808354040283529160200191610755565b820191906000526020600020905b81548152906001019060200180831161073857829003601f168201915b505050505090505b90565b600061077461076d611bc1565b8484611bc5565b5060015b92915050565b610786611bc1565b6012546001600160a01b039081169116146107d6576040805162461bcd60e51b81526020600482018190526024820152600080516020612750833981519152604482015290519081900360640190fd5b600d805490829055604080518281526020810184905281517f16dce8a765cb6ee3e4d13d090afac37e2a2265533419e1d04e9a9533b796acdc929181900390910190a15050565b6000806108286113b0565b9050600061083533610676565b90508015610847576108473382611cb1565b600654604080516370a0823160e01b815230600482015290516000926001600160a01b0316916370a08231916024808301926020929190829003018186803b15801561089257600080fd5b505afa1580156108a6573d6000803e3d6000fd5b505050506040513d60208110156108bc57600080fd5b50516006549091506108d9906001600160a01b0316333088611e42565b600654604080516370a0823160e01b815230600482015290516000926001600160a01b0316916370a08231916024808301926020929190829003018186803b15801561092457600080fd5b505afa158015610938573d6000803e3d6000fd5b505050506040513d602081101561094e57600080fd5b5051905061095c8183611b7f565b955060006109e4600660009054906101000a90046001600160a01b03166001600160a01b03166377c7b8fc6040518163ffffffff1660e01b815260040160206040518083038186803b1580156109b157600080fd5b505afa1580156109c5573d6000803e3d6000fd5b505050506040513d60208110156109db57600080fd5b50518890611b3d565b600f549091506109f49082611e9c565b600f556000610a01610bbc565b610a0c575086610a25565b610a22866106b5610a1b610bbc565b8b90611add565b90505b610a2f3382611ef6565b610a4764e8d4a510006106b56011546106af3361103a565b336000908152600e602052604090205550949695505050505050565b600080610af7670de0b6b3a76400006106b5600660009054906101000a90046001600160a01b03166001600160a01b03166377c7b8fc6040518163ffffffff1660e01b815260040160206040518083038186803b158015610ac357600080fd5b505afa158015610ad7573d6000803e3d6000fd5b505050506040513d6020811015610aed57600080fd5b50516106af6113b0565b9050600f54811115610bb4576000610b1a600f5483611b7f90919063ffffffff16565b9050610bab600660009054906101000a90046001600160a01b03166001600160a01b03166377c7b8fc6040518163ffffffff1660e01b815260040160206040518083038186803b158015610b6d57600080fd5b505afa158015610b81573d6000803e3d6000fd5b505050506040513d6020811015610b9757600080fd5b50516106b583670de0b6b3a7640000611add565b9250505061075d565b600091505090565b60025490565b6000610bcf848484611fe6565b610c3f84610bdb611bc1565b610c3a85604051806060016040528060288152602001612728602891396001600160a01b038a16600090815260016020526040812090610c19611bc1565b6001600160a01b031681526020810191909152604001600020549190612141565b611bc5565b5060019392505050565b6000610c5433610676565b90508015610c6657610c663382611cb1565b6000610c7f610c73610bbc565b6106b5856106af6113b0565b9050610c8b33846121d8565b610ca364e8d4a510006106b56011546106af3361103a565b336000908152600e6020908152604080832093909355600a5483516370a0823160e01b8152306004820152935192936001600160a01b03909116926370a0823192602480840193919291829003018186803b158015610d0157600080fd5b505afa158015610d15573d6000803e3d6000fd5b505050506040513d6020811015610d2b57600080fd5b505160065460408051632e1a7d4d60e01b81526004810186905290519293506001600160a01b0390911691632e1a7d4d9160248082019260009290919082900301818387803b158015610d7d57600080fd5b505af1158015610d91573d6000803e3d6000fd5b5050600a54604080516370a0823160e01b81523060048201529051600094506001600160a01b0390921692506370a08231916024808301926020929190829003018186803b158015610de257600080fd5b505afa158015610df6573d6000803e3d6000fd5b505050506040513d6020811015610e0c57600080fd5b505190506000610e1c8284611b7f565b9050610e27816122d4565b600a54610e3e906001600160a01b031633836122fb565b505050505050565b60055460ff1690565b6000610774610e5c611bc1565b84610c3a8560016000610e6d611bc1565b6001600160a01b03908116825260208083019390935260409182016000908120918c168152925290205490611e9c565b6000610ea7610a63565b90508015611010576000610ede670de0b6b3a76400006106b56010546106af6127106106b5600b5489611add90919063ffffffff16565b60075460408051632d4f81f160e21b81526004810184905290519293506001600160a01b039091169163b53e07c49160248082019260009290919082900301818387803b158015610f2e57600080fd5b505af1158015610f42573d6000803e3d6000fd5b5050600954600b54610f8293506001600160a01b039091169150610f6f90612710906106b5908790611add565b6006546001600160a01b031691906122fb565b610fa8610f9f610f90610bbc565b6106b58464e8d4a51000611add565b60115490611e9c565b60118190555061100b670de0b6b3a76400006106b5600660009054906101000a90046001600160a01b03166001600160a01b03166377c7b8fc6040518163ffffffff1660e01b815260040160206040518083038186803b158015610ac357600080fd5b600f55505b50565b600e6020526000908152604090205481565b6009546001600160a01b031681565b600b5481565b6001600160a01b031660009081526020819052604090205490565b61105d611bc1565b6012546001600160a01b039081169116146110ad576040805162461bcd60e51b81526020600482018190526024820152600080516020612750833981519152604482015290519081900360640190fd5b6012546040516000916001600160a01b0316907f8be0079c531659141344cd1fd0a4f28419497f9722a3daafe3b4186f6b6457e0908390a3601280546001600160a01b0319169055565b600061110233610676565b90508015611114576111143382611cb1565b6000611121610c73610bbc565b905061112d33846121d8565b61114564e8d4a510006106b56011546106af3361103a565b336000908152600e60209081526040808320939093556006548351631df1ee3f60e21b8152935192936111de93670de0b6b3a7640000936106b5936001600160a01b0316926377c7b8fc9260048083019392829003018186803b1580156111ab57600080fd5b505afa1580156111bf573d6000803e3d6000fd5b505050506040513d60208110156111d557600080fd5b50518590611add565b90506111e9816122d4565b600654611200906001600160a01b031633846122fb565b50505050565b600f5481565b600c5481565b61122361121e3361103a565b610c49565b565b6012546001600160a01b031690565b61123c611bc1565b6012546001600160a01b0390811691161461128c576040805162461bcd60e51b81526020600482018190526024820152600080516020612750833981519152604482015290519081900360640190fd5b600c805490829055604080518281526020810184905281517ff188aeec9f2cef772b967829d57da7b607a102100e7a60916fddddf6175382e6929181900390910190a15050565b60048054604080516020601f60026000196101006001881615020190951694909404938401819004810282018101909252828152606093909290918301828280156107555780601f1061072a57610100808354040283529160200191610755565b6000610774611341611bc1565b84610c3a85604051806060016040528060258152602001612804602591396001600061136b611bc1565b6001600160a01b03908116825260208083019390935260409182016000908120918d16815292529020549190612141565b60006107746113a9611bc1565b8484611fe6565b600654604080516370a0823160e01b815230600482015290516000926001600160a01b0316916370a08231916024808301926020929190829003018186803b1580156113fb57600080fd5b505afa15801561140f573d6000803e3d6000fd5b505050506040513d602081101561142557600080fd5b5051905090565b60006114418261143b3061103a565b90611e9c565b600d54101561145d576114566002600061234d565b90506106c4565b6114698261143b610bbc565b600c54101561147e576114566002600161234d565b600061148933610676565b9050801561149b5761149b3382611cb1565b60006114a56113b0565b600a54604080516370a0823160e01b815230600482015290519293506000926001600160a01b03909216916370a0823191602480820192602092909190829003018186803b1580156114f657600080fd5b505afa15801561150a573d6000803e3d6000fd5b505050506040513d602081101561152057600080fd5b5051600a5490915061153d906001600160a01b0316333088611e42565b600a54604080516370a0823160e01b815230600482015290516000926001600160a01b0316916370a08231916024808301926020929190829003018186803b15801561158857600080fd5b505afa15801561159c573d6000803e3d6000fd5b505050506040513d60208110156115b257600080fd5b505190506115c08183611b7f565b600f549096506115d09087611e9c565b600f55600a546006546040805163095ea7b360e01b81526001600160a01b039283166004820152602481018a90529051919092169163095ea7b39160448083019260209291908290030181600087803b15801561162c57600080fd5b505af1158015611640573d6000803e3d6000fd5b505050506040513d602081101561165657600080fd5b50506006546040805163b6b55f2560e01b81526004810189905290516001600160a01b039092169163b6b55f259160248082019260009290919082900301818387803b1580156116a557600080fd5b505af11580156116b9573d6000803e3d6000fd5b5050505060006116c76113b0565b905060006116d58286611b7f565b905060006116e1610bbc565b6116ec575080611705565b611702866106b56116fb610bbc565b8590611add565b90505b61170f3382611ef6565b61172764e8d4a510006106b56011546106af3361103a565b336000908152600e602052604090205550505050505050919050565b60115481565b600d5481565b60105481565b6001600160a01b03918216600090815260016020908152604080832093909416825291909152205490565b600a54604080516370a0823160e01b81523360048201529051611010926001600160a01b0316916370a08231916024808301926020929190829003018186803b1580156117cc57600080fd5b505afa1580156117e0573d6000803e3d6000fd5b505050506040513d60208110156117f657600080fd5b505161142c565b611805611bc1565b6012546001600160a01b03908116911614611855576040805162461bcd60e51b81526020600482018190526024820152600080516020612750833981519152604482015290519081900360640190fd5b6001600160a01b0381166118b0576040805162461bcd60e51b815260206004820181905260248201527f74726561737572652073686f756c642062652076616c69642061646472657373604482015290519081900360640190fd5b600980546001600160a01b038381166001600160a01b0319831681179093556040805191909216808252602082019390935281517f567657fa3f286518b318f4a29870674f433f622fdfc819691acb13105b228225929181900390910190a15050565b61191b611bc1565b6012546001600160a01b0390811691161461196b576040805162461bcd60e51b81526020600482018190526024820152600080516020612750833981519152604482015290519081900360640190fd5b6001600160a01b0381166119b05760405162461bcd60e51b81526004018080602001828103825260268152602001806126996026913960400191505060405180910390fd5b6012546040516001600160a01b038084169216907f8be0079c531659141344cd1fd0a4f28419497f9722a3daafe3b4186f6b6457e090600090a3601280546001600160a01b0319166001600160a01b0392909216919091179055565b60055461010090046001600160a01b031681565b611a28611bc1565b6012546001600160a01b03908116911614611a78576040805162461bcd60e51b81526020600482018190526024820152600080516020612750833981519152604482015290519081900360640190fd5b6010805490829055604080518281526020810184905281517fbfd081c10a6f662e897477e984f1acebacf505f1ad88592bb5d6ec1df6ad9916929181900390910190a15050565b6006546001600160a01b031681565b600a546001600160a01b031681565b600082611aec57506000610778565b82820282848281611af957fe5b0414611b365760405162461bcd60e51b81526004018080602001828103825260218152602001806127076021913960400191505060405180910390fd5b9392505050565b6000611b3683836040518060400160405280601a81526020017f536166654d6174683a206469766973696f6e206279207a65726f0000000000008152506123b3565b6000611b3683836040518060400160405280601e81526020017f536166654d6174683a207375627472616374696f6e206f766572666c6f770000815250612141565b3390565b6001600160a01b038316611c0a5760405162461bcd60e51b81526004018080602001828103825260248152602001806127b66024913960400191505060405180910390fd5b6001600160a01b038216611c4f5760405162461bcd60e51b81526004018080602001828103825260228152602001806126bf6022913960400191505060405180910390fd5b6001600160a01b03808416600081815260016020908152604080832094871680845294825291829020859055815185815291517f8c5be1e5ebec7d5bd14f71427d1e84f3dd0314c0f7b2291e5b200ac8c7c3b9259281900390910190a3505050565b600854604080516370a0823160e01b815230600482015290516000926001600160a01b0316916370a08231916024808301926020929190829003018186803b158015611cfc57600080fd5b505afa158015611d10573d6000803e3d6000fd5b505050506040513d6020811015611d2657600080fd5b5051905080821115611dba576008546040805163a9059cbb60e01b81526001600160a01b038681166004830152602482018590529151919092169163a9059cbb9160448083019260209291908290030181600087803b158015611d8857600080fd5b505af1158015611d9c573d6000803e3d6000fd5b505050506040513d6020811015611db257600080fd5b50611e3d9050565b6008546040805163a9059cbb60e01b81526001600160a01b038681166004830152602482018690529151919092169163a9059cbb9160448083019260209291908290030181600087803b158015611e1057600080fd5b505af1158015611e24573d6000803e3d6000fd5b505050506040513d6020811015611e3a57600080fd5b50505b505050565b604080516001600160a01b0380861660248301528416604482015260648082018490528251808303909101815260849091019091526020810180516001600160e01b03166323b872dd60e01b179052611200908590612418565b600082820183811015611b36576040805162461bcd60e51b815260206004820152601b60248201527f536166654d6174683a206164646974696f6e206f766572666c6f770000000000604482015290519081900360640190fd5b6001600160a01b038216611f51576040805162461bcd60e51b815260206004820152601f60248201527f45524332303a206d696e7420746f20746865207a65726f206164647265737300604482015290519081900360640190fd5b611f5d60008383611e3d565b600254611f6a9082611e9c565b6002556001600160a01b038216600090815260208190526040902054611f909082611e9c565b6001600160a01b0383166000818152602081815260408083209490945583518581529351929391927fddf252ad1be2c89b69c2b068fc378daa952ba7f163c4a11628f55a4df523b3ef9281900390910190a35050565b6001600160a01b03831661202b5760405162461bcd60e51b81526004018080602001828103825260258152602001806127916025913960400191505060405180910390fd5b6001600160a01b0382166120705760405162461bcd60e51b81526004018080602001828103825260238152602001806126546023913960400191505060405180910390fd5b61207b838383611e3d565b6120b8816040518060600160405280602681526020016126e1602691396001600160a01b0386166000908152602081905260409020549190612141565b6001600160a01b0380851660009081526020819052604080822093909355908416815220546120e79082611e9c565b6001600160a01b038084166000818152602081815260409182902094909455805185815290519193928716927fddf252ad1be2c89b69c2b068fc378daa952ba7f163c4a11628f55a4df523b3ef92918290030190a3505050565b600081848411156121d05760405162461bcd60e51b81526004018080602001828103825283818151815260200191508051906020019080838360005b8381101561219557818101518382015260200161217d565b50505050905090810190601f1680156121c25780820380516001836020036101000a031916815260200191505b509250505060405180910390fd5b505050900390565b6001600160a01b03821661221d5760405162461bcd60e51b81526004018080602001828103825260218152602001806127706021913960400191505060405180910390fd5b61222982600083611e3d565b61226681604051806060016040528060228152602001612677602291396001600160a01b0385166000908152602081905260409020549190612141565b6001600160a01b03831660009081526020819052604090205560025461228c9082611b7f565b6002556040805182815290516000916001600160a01b038516917fddf252ad1be2c89b69c2b068fc378daa952ba7f163c4a11628f55a4df523b3ef9181900360200190a35050565b600f548111156122e8576000600f55611010565b600f546122f59082611b7f565b600f5550565b604080516001600160a01b038416602482015260448082018490528251808303909101815260649091019091526020810180516001600160e01b031663a9059cbb60e01b179052611e3d908490612418565b60007f45b96fe442630264581b197e84bbada861235052c5a1aadfff9ea4e40a969aa083600381111561237c57fe5b83600181111561238857fe5b604080519283526020830191909152600082820152519081900360600190a1826003811115611b3657fe5b600081836124025760405162461bcd60e51b815260206004820181815283516024840152835190928392604490910191908501908083836000831561219557818101518382015260200161217d565b50600083858161240e57fe5b0495945050505050565b606061246d826040518060400160405280602081526020017f5361666545524332303a206c6f772d6c6576656c2063616c6c206661696c6564815250856001600160a01b03166124c99092919063ffffffff16565b805190915015611e3d5780806020019051602081101561248c57600080fd5b5051611e3d5760405162461bcd60e51b815260040180806020018281038252602a8152602001806127da602a913960400191505060405180910390fd5b60606124d884846000856124e0565b949350505050565b60606124eb8561264d565b61253c576040805162461bcd60e51b815260206004820152601d60248201527f416464726573733a2063616c6c20746f206e6f6e2d636f6e7472616374000000604482015290519081900360640190fd5b60006060866001600160a01b031685876040518082805190602001908083835b6020831061257b5780518252601f19909201916020918201910161255c565b6001836020036101000a03801982511681845116808217855250505050505090500191505060006040518083038185875af1925050503d80600081146125dd576040519150601f19603f3d011682016040523d82523d6000602084013e6125e2565b606091505b509150915081156125f65791506124d89050565b8051156126065780518082602001fd5b60405162461bcd60e51b815260206004820181815286516024840152865187939192839260440191908501908083836000831561219557818101518382015260200161217d565b3b15159056fe45524332303a207472616e7366657220746f20746865207a65726f206164647265737345524332303a206275726e20616d6f756e7420657863656564732062616c616e63654f776e61626c653a206e6577206f776e657220697320746865207a65726f206164647265737345524332303a20617070726f766520746f20746865207a65726f206164647265737345524332303a207472616e7366657220616d6f756e7420657863656564732062616c616e6365536166654d6174683a206d756c7469706c69636174696f6e206f766572666c6f7745524332303a207472616e7366657220616d6f756e74206578636565647320616c6c6f77616e63654f776e61626c653a2063616c6c6572206973206e6f7420746865206f776e657245524332303a206275726e2066726f6d20746865207a65726f206164647265737345524332303a207472616e736665722066726f6d20746865207a65726f206164647265737345524332303a20617070726f76652066726f6d20746865207a65726f20616464726573735361666545524332303a204552433230206f7065726174696f6e20646964206e6f74207375636365656445524332303a2064656372656173656420616c6c6f77616e63652062656c6f77207a65726fa264697066735822122027630a916030d97a47ec1fd7d3ed9509f9e57527410d11a3e4488b8c8942de4464736f6c634300060c0033",
  "immutableReferences": {},
  "source": "// SPDX-License-Identifier: MIT\npragma solidity ^0.6.2;\n\nimport \"@openzeppelin/contracts/token/ERC20/IERC20.sol\";\nimport \"@openzeppelin/contracts/access/Ownable.sol\";\nimport \"@openzeppelin/contracts/math/SafeMath.sol\";\nimport \"@openzeppelin/contracts/utils/Address.sol\";\nimport \"@openzeppelin/contracts/token/ERC20/SafeERC20.sol\";\nimport \"@openzeppelin/contracts/token/ERC20/ERC20.sol\";\n\nimport \"./YieldDelegatingVaultEvent.sol\";\nimport \"./YDVRewardsDistributor.sol\";\nimport \"./interfaces/Vault.sol\";\nimport \"./YDVErrorReporter.sol\";\nimport \"./YieldDelegatingVaultStorage.sol\";\n\ncontract YieldDelegatingVault is ERC20, YieldDelegatingVaultStorage, YieldDelegatingVaultEvent, YDVErrorReporter, Ownable {\n    using SafeERC20 for IERC20;\n    using Address for address;\n    using SafeMath for uint256;\n\n    constructor (\n        address _vault,\n        address _rewards,\n        address _treasury,\n        uint256 _delegatePercent,\n        uint256 _globalDepositCap,\n        uint256 _individualDepositCap\n    ) public ERC20(\n        string(abi.encodePacked(\"rally delegating \", ERC20(Vault(_vault).token()).name())),\n        string(abi.encodePacked(\"rd\", ERC20(Vault(_vault).token()).symbol()))\n    ) {\n        _setupDecimals(ERC20(Vault(_vault).token()).decimals());\n        token = IERC20(Vault(_vault).token()); //token being deposited in the referenced vault\n        vault = _vault; //address of the vault we're proxying\n        rewards = YDVRewardsDistributor(_rewards);\n        rally = rewards.rewardToken();\n\ttreasury = _treasury;\n        delegatePercent = _delegatePercent;\n        globalDepositCap = _globalDepositCap;\n        individualDepositCap = _individualDepositCap;\n\t    totalDeposits = 0;\n        accRallyPerShare = 0;\n    }\n\n    function setTreasury(address newTreasury) public onlyOwner {\n        require(newTreasury != address(0), \"treasure should be valid address\");\n\n        address oldTreasury = treasury;\n        treasury = newTreasury;\n\n        emit NewTreasury(oldTreasury, newTreasury);\n    }\n\n    function setGlobalDepositCap(uint256 newGlobalDepositCap) public onlyOwner {\n        uint256 oldGlobalDepositCap = globalDepositCap;\n        globalDepositCap = newGlobalDepositCap;\n\n        emit NewGlobalDepositCap(oldGlobalDepositCap, newGlobalDepositCap);\n    }\n\n    function setIndividualDepositCap(uint256 newIndividualDepositCap) public onlyOwner {\n        uint256 oldIndividualDepositCap = individualDepositCap;\n        individualDepositCap = newIndividualDepositCap;\n\n        emit NewIndividualDepositCap(oldIndividualDepositCap, newIndividualDepositCap);\n    }\n\n    function setNewRewardPerToken(uint256 newRewardPerToken) public onlyOwner {\n        uint256 oldRewardPerToken = rewardPerToken;\n        rewardPerToken = newRewardPerToken;\n\n        emit NewRewardPerToken(oldRewardPerToken, newRewardPerToken);\n    }\n\n    function earned(address account) public view returns (uint256) {\n        return balanceOf(account).mul(accRallyPerShare).div(1e12).sub(rewardDebt[account]);\n    }\n\n    function balance() public view returns (uint256) {\n        return (IERC20(vault)).balanceOf(address(this)); //how many shares do we have in the vault we are delegating to\n    }\n\n    function depositAll() external {\n        deposit(token.balanceOf(msg.sender));\n    }\n\n    function deposit(uint256 _amount) public returns (uint256) {\n        if(individualDepositCap < balanceOf(address(this)).add(_amount)) {\n            return fail(Error.BAD_INPUT, FailureInfo.SET_INDIVIDUAL_SOFT_CAP_CHECK);\n        }\n\n        if(globalDepositCap < totalSupply().add(_amount)) {\n            return fail(Error.BAD_INPUT, FailureInfo.SET_GLOBAL_SOFT_CAP_CHECK);\n        }\n\n        uint256 pending = earned(msg.sender);\n        if (pending > 0) {\n            safeRallyTransfer(msg.sender, pending);\n        }\n        uint256 _pool = balance();\n\n        uint256 _before = token.balanceOf(address(this));\n        token.safeTransferFrom(msg.sender, address(this), _amount);\n        uint256 _after = token.balanceOf(address(this));\n        _amount = _after.sub(_before);\n\n        totalDeposits = totalDeposits.add(_amount);\n\n        token.approve(vault, _amount);\n        Vault(vault).deposit(_amount);\n        uint256 _after_pool = balance();\n\t\t\n        uint256 _new_shares = _after_pool.sub(_pool); //new vault tokens representing my added vault shares\n\n        //translate vault shares into delegating vault shares\n        uint256 shares = 0;\n        if (totalSupply() == 0) {\n            shares = _new_shares;\n        } else {\n            shares = (_new_shares.mul(totalSupply())).div(_pool);\n        }\n        _mint(msg.sender, shares);\n        rewardDebt[msg.sender] = balanceOf(msg.sender).mul(accRallyPerShare).div(1e12);\n    }\n\n    function deposityToken(uint256 _yamount) public returns (uint256) {\n        uint256 _pool = balance();\n\n        uint256 pending = earned(msg.sender);\n        if (pending > 0) {\n            safeRallyTransfer(msg.sender, pending);\n        }\n\n        uint256 _before = IERC20(vault).balanceOf(address(this));\n        IERC20(vault).safeTransferFrom(msg.sender, address(this), _yamount);\n        uint256 _after = IERC20(vault).balanceOf(address(this));\n        _yamount = _after.sub(_before);\n\n        uint _underlyingAmount = _yamount.div(Vault(vault).getPricePerFullShare());\n        totalDeposits = totalDeposits.add(_underlyingAmount);\n\t\t\n        //translate vault shares into delegating vault shares\n        uint256 shares = 0;\n        if (totalSupply() == 0) {\n            shares = _yamount;\n        } else {\n            shares = (_yamount.mul(totalSupply())).div(_pool);\n        }\n        _mint(msg.sender, shares);\n        rewardDebt[msg.sender] = balanceOf(msg.sender).mul(accRallyPerShare).div(1e12);\n    }\n\n    function withdrawAll() external {\n        withdraw(balanceOf(msg.sender));\n    }\n\n    function withdraw(uint256 _shares) public {\n        uint256 pending = earned(msg.sender);\n        if (pending > 0) {\n            safeRallyTransfer(msg.sender, pending);\n        }\n\n        uint256 r = (balance().mul(_shares)).div(totalSupply());\n        _burn(msg.sender, _shares);\n        rewardDebt[msg.sender] = balanceOf(msg.sender).mul(accRallyPerShare).div(1e12);\n        uint256 _before = token.balanceOf(address(this));\n        Vault(vault).withdraw(r);\n        uint256 _after = token.balanceOf(address(this));\n\n        uint256 toTransfer = _after.sub(_before);\n        safeReduceTotalDeposits(toTransfer);\n        token.safeTransfer(msg.sender, toTransfer);\n    }\n\n    //in case of rounding errors converting between vault tokens and underlying value\n    function safeReduceTotalDeposits(uint256 _amount) internal {\n        if (_amount > totalDeposits) {\n          totalDeposits = 0;\n        } else {\n          totalDeposits = totalDeposits.sub(_amount);\n        }\n    }\n\n    function withdrawyToken(uint256 _shares) public {\n        uint256 pending = earned(msg.sender);\n        if (pending > 0) {\n            safeRallyTransfer(msg.sender, pending);\n        }\n        uint256 r = (balance().mul(_shares)).div(totalSupply());\n        _burn(msg.sender, _shares);\n        rewardDebt[msg.sender] = balanceOf(msg.sender).mul(accRallyPerShare).div(1e12);\n        uint256 _amount = r.mul(Vault(vault).getPricePerFullShare()).div(1e18);\n\n        safeReduceTotalDeposits(_amount);\n\n        IERC20(vault).safeTransfer(msg.sender, r);\n    }\n\n    // Safe RLY transfer function, just in case pool does not have enough RLY due to rounding error\n    function safeRallyTransfer(address _to, uint256 _amount) internal {\n        uint256 rallyBal = rally.balanceOf(address(this));\n        if (_amount > rallyBal) {\n            rally.transfer(_to, rallyBal);\n        } else {\n            rally.transfer(_to, _amount);\n        }\n    }\n\n    //how much are our shares of the underlying vault worth relative to the deposit value? returns value denominated in vault tokens\n    function availableYield() public view returns (uint256) {\n        uint256 totalValue = balance().mul(Vault(vault).getPricePerFullShare()).div(1e18);\n        if (totalValue > totalDeposits) {\n            uint256 earnings = totalValue.sub(totalDeposits);\n            return earnings.mul(1e18).div(Vault(vault).getPricePerFullShare());\n        }\n        return 0;\n    }\n\n    //transfer accumulated yield to treasury, update totalDeposits to ensure availableYield following\n    //harvest is 0, and increase accumulated rally rewards\n    //harvest fails if we're unable to fund rewards\n    function harvest() public {\n        uint256 _availableYield = availableYield();\n        if (_availableYield > 0) {\n            uint256 rallyReward = _availableYield.mul(delegatePercent).div(10000).mul(rewardPerToken).div(1e18);\n            rewards.transferReward(rallyReward);\n            IERC20(vault).safeTransfer(treasury, _availableYield.mul(delegatePercent).div(10000));\n            accRallyPerShare = accRallyPerShare.add(rallyReward.mul(1e12).div(totalSupply()));\n            totalDeposits = balance().mul(Vault(vault).getPricePerFullShare()).div(1e18);\n        }\n    }\n}\n",
  "sourcePath": "/Users/aranade/Development/yield-delegation/contracts/YieldDelegatingVault.sol",
  "compiler": {
    "name": "solc",
    "version": "0.6.12+commit.27d51765.Emscripten.clang"
  },
  "schemaVersion": "3.2.3",
  "updatedAt": "2020-10-06T04:57:07.678Z",
  "networkType": "ethereum",
  "devdoc": {
    "kind": "dev",
    "methods": {
      "allowance(address,address)": {
        "details": "See {IERC20-allowance}."
      },
      "approve(address,uint256)": {
        "details": "See {IERC20-approve}. Requirements: - `spender` cannot be the zero address."
      },
      "balanceOf(address)": {
        "details": "See {IERC20-balanceOf}."
      },
      "decimals()": {
        "details": "Returns the number of decimals used to get its user representation. For example, if `decimals` equals `2`, a balance of `505` tokens should be displayed to a user as `5,05` (`505 / 10 ** 2`). Tokens usually opt for a value of 18, imitating the relationship between Ether and Wei. This is the value {ERC20} uses, unless {_setupDecimals} is called. NOTE: This information is only used for _display_ purposes: it in no way affects any of the arithmetic of the contract, including {IERC20-balanceOf} and {IERC20-transfer}."
      },
      "decreaseAllowance(address,uint256)": {
        "details": "Atomically decreases the allowance granted to `spender` by the caller. This is an alternative to {approve} that can be used as a mitigation for problems described in {IERC20-approve}. Emits an {Approval} event indicating the updated allowance. Requirements: - `spender` cannot be the zero address. - `spender` must have allowance for the caller of at least `subtractedValue`."
      },
      "increaseAllowance(address,uint256)": {
        "details": "Atomically increases the allowance granted to `spender` by the caller. This is an alternative to {approve} that can be used as a mitigation for problems described in {IERC20-approve}. Emits an {Approval} event indicating the updated allowance. Requirements: - `spender` cannot be the zero address."
      },
      "name()": {
        "details": "Returns the name of the token."
      },
      "owner()": {
        "details": "Returns the address of the current owner."
      },
      "renounceOwnership()": {
        "details": "Leaves the contract without owner. It will not be possible to call `onlyOwner` functions anymore. Can only be called by the current owner. NOTE: Renouncing ownership will leave the contract without an owner, thereby removing any functionality that is only available to the owner."
      },
      "symbol()": {
        "details": "Returns the symbol of the token, usually a shorter version of the name."
      },
      "totalSupply()": {
        "details": "See {IERC20-totalSupply}."
      },
      "transfer(address,uint256)": {
        "details": "See {IERC20-transfer}. Requirements: - `recipient` cannot be the zero address. - the caller must have a balance of at least `amount`."
      },
      "transferFrom(address,address,uint256)": {
        "details": "See {IERC20-transferFrom}. Emits an {Approval} event indicating the updated allowance. This is not required by the EIP. See the note at the beginning of {ERC20}; Requirements: - `sender` and `recipient` cannot be the zero address. - `sender` must have a balance of at least `amount`. - the caller must have allowance for ``sender``'s tokens of at least `amount`."
      },
      "transferOwnership(address)": {
        "details": "Transfers ownership of the contract to a new account (`newOwner`). Can only be called by the current owner."
      }
    },
    "version": 1
  },
  "userdoc": {
    "events": {
      "NewDelegatePercent(uint256,uint256)": {
        "notice": "Emitted when set new delegate percent"
      },
      "NewGlobalDepositCap(uint256,uint256)": {
        "notice": "Emitted when set new global deposit cap"
      },
      "NewIndividualDepositCap(uint256,uint256)": {
        "notice": "Emitted when set new individual deposit cap"
      },
      "NewRewardPerToken(uint256,uint256)": {
        "notice": "Emitted when a minter is added by admin"
      },
      "NewTreasury(address,address)": {
        "notice": "Emitted when set new treasury"
      },
      "RewardPaid(address,uint256)": {
        "notice": "Emitted when a reward paid"
      }
    },
    "kind": "user",
    "methods": {},
    "version": 1
  }
}