{
  "contractName": "YieldDelegatingVault",
  "abi": [
    {
      "inputs": [
        {
          "internalType": "address",
          "name": "_vault",
          "type": "address"
        }
      ],
      "stateMutability": "nonpayable",
      "type": "constructor"
    },
    {
      "anonymous": false,
      "inputs": [
        {
          "indexed": true,
          "internalType": "address",
          "name": "owner",
          "type": "address"
        },
        {
          "indexed": true,
          "internalType": "address",
          "name": "spender",
          "type": "address"
        },
        {
          "indexed": false,
          "internalType": "uint256",
          "name": "value",
          "type": "uint256"
        }
      ],
      "name": "Approval",
      "type": "event"
    },
    {
      "anonymous": false,
      "inputs": [
        {
          "indexed": true,
          "internalType": "address",
          "name": "from",
          "type": "address"
        },
        {
          "indexed": true,
          "internalType": "address",
          "name": "to",
          "type": "address"
        },
        {
          "indexed": false,
          "internalType": "uint256",
          "name": "value",
          "type": "uint256"
        }
      ],
      "name": "Transfer",
      "type": "event"
    },
    {
      "inputs": [
        {
          "internalType": "address",
          "name": "owner",
          "type": "address"
        },
        {
          "internalType": "address",
          "name": "spender",
          "type": "address"
        }
      ],
      "name": "allowance",
      "outputs": [
        {
          "internalType": "uint256",
          "name": "",
          "type": "uint256"
        }
      ],
      "stateMutability": "view",
      "type": "function",
      "constant": true
    },
    {
      "inputs": [
        {
          "internalType": "address",
          "name": "spender",
          "type": "address"
        },
        {
          "internalType": "uint256",
          "name": "amount",
          "type": "uint256"
        }
      ],
      "name": "approve",
      "outputs": [
        {
          "internalType": "bool",
          "name": "",
          "type": "bool"
        }
      ],
      "stateMutability": "nonpayable",
      "type": "function"
    },
    {
      "inputs": [
        {
          "internalType": "address",
          "name": "account",
          "type": "address"
        }
      ],
      "name": "balanceOf",
      "outputs": [
        {
          "internalType": "uint256",
          "name": "",
          "type": "uint256"
        }
      ],
      "stateMutability": "view",
      "type": "function",
      "constant": true
    },
    {
      "inputs": [],
      "name": "decimals",
      "outputs": [
        {
          "internalType": "uint8",
          "name": "",
          "type": "uint8"
        }
      ],
      "stateMutability": "view",
      "type": "function",
      "constant": true
    },
    {
      "inputs": [
        {
          "internalType": "address",
          "name": "spender",
          "type": "address"
        },
        {
          "internalType": "uint256",
          "name": "subtractedValue",
          "type": "uint256"
        }
      ],
      "name": "decreaseAllowance",
      "outputs": [
        {
          "internalType": "bool",
          "name": "",
          "type": "bool"
        }
      ],
      "stateMutability": "nonpayable",
      "type": "function"
    },
    {
      "inputs": [
        {
          "internalType": "address",
          "name": "spender",
          "type": "address"
        },
        {
          "internalType": "uint256",
          "name": "addedValue",
          "type": "uint256"
        }
      ],
      "name": "increaseAllowance",
      "outputs": [
        {
          "internalType": "bool",
          "name": "",
          "type": "bool"
        }
      ],
      "stateMutability": "nonpayable",
      "type": "function"
    },
    {
      "inputs": [],
      "name": "name",
      "outputs": [
        {
          "internalType": "string",
          "name": "",
          "type": "string"
        }
      ],
      "stateMutability": "view",
      "type": "function",
      "constant": true
    },
    {
      "inputs": [],
      "name": "symbol",
      "outputs": [
        {
          "internalType": "string",
          "name": "",
          "type": "string"
        }
      ],
      "stateMutability": "view",
      "type": "function",
      "constant": true
    },
    {
      "inputs": [],
      "name": "token",
      "outputs": [
        {
          "internalType": "contract IERC20",
          "name": "",
          "type": "address"
        }
      ],
      "stateMutability": "view",
      "type": "function",
      "constant": true
    },
    {
      "inputs": [],
      "name": "totalDeposits",
      "outputs": [
        {
          "internalType": "uint256",
          "name": "",
          "type": "uint256"
        }
      ],
      "stateMutability": "view",
      "type": "function",
      "constant": true
    },
    {
      "inputs": [],
      "name": "totalSupply",
      "outputs": [
        {
          "internalType": "uint256",
          "name": "",
          "type": "uint256"
        }
      ],
      "stateMutability": "view",
      "type": "function",
      "constant": true
    },
    {
      "inputs": [
        {
          "internalType": "address",
          "name": "recipient",
          "type": "address"
        },
        {
          "internalType": "uint256",
          "name": "amount",
          "type": "uint256"
        }
      ],
      "name": "transfer",
      "outputs": [
        {
          "internalType": "bool",
          "name": "",
          "type": "bool"
        }
      ],
      "stateMutability": "nonpayable",
      "type": "function"
    },
    {
      "inputs": [
        {
          "internalType": "address",
          "name": "sender",
          "type": "address"
        },
        {
          "internalType": "address",
          "name": "recipient",
          "type": "address"
        },
        {
          "internalType": "uint256",
          "name": "amount",
          "type": "uint256"
        }
      ],
      "name": "transferFrom",
      "outputs": [
        {
          "internalType": "bool",
          "name": "",
          "type": "bool"
        }
      ],
      "stateMutability": "nonpayable",
      "type": "function"
    },
    {
      "inputs": [],
      "name": "treasury",
      "outputs": [
        {
          "internalType": "address",
          "name": "",
          "type": "address"
        }
      ],
      "stateMutability": "view",
      "type": "function",
      "constant": true
    },
    {
      "inputs": [],
      "name": "vault",
      "outputs": [
        {
          "internalType": "address",
          "name": "",
          "type": "address"
        }
      ],
      "stateMutability": "view",
      "type": "function",
      "constant": true
    },
    {
      "inputs": [],
      "name": "balance",
      "outputs": [
        {
          "internalType": "uint256",
          "name": "",
          "type": "uint256"
        }
      ],
      "stateMutability": "view",
      "type": "function",
      "constant": true
    },
    {
      "inputs": [],
      "name": "depositAll",
      "outputs": [],
      "stateMutability": "nonpayable",
      "type": "function"
    },
    {
      "inputs": [
        {
          "internalType": "uint256",
          "name": "_amount",
          "type": "uint256"
        }
      ],
      "name": "deposit",
      "outputs": [],
      "stateMutability": "nonpayable",
      "type": "function"
    },
    {
      "inputs": [],
      "name": "withdrawAll",
      "outputs": [],
      "stateMutability": "nonpayable",
      "type": "function"
    },
    {
      "inputs": [
        {
          "internalType": "uint256",
          "name": "_shares",
          "type": "uint256"
        }
      ],
      "name": "withdraw",
      "outputs": [],
      "stateMutability": "nonpayable",
      "type": "function"
    },
    {
      "inputs": [],
      "name": "getPricePerFullShare",
      "outputs": [
        {
          "internalType": "uint256",
          "name": "",
          "type": "uint256"
        }
      ],
      "stateMutability": "view",
      "type": "function",
      "constant": true
    },
    {
      "inputs": [],
      "name": "availableYield",
      "outputs": [
        {
          "internalType": "uint256",
          "name": "",
          "type": "uint256"
        }
      ],
      "stateMutability": "view",
      "type": "function",
      "constant": true
    },
    {
      "inputs": [],
      "name": "harvest",
      "outputs": [],
      "stateMutability": "nonpayable",
      "type": "function"
    }
  ],
  "bytecode": "0x60806040523480156200001157600080fd5b50604051620020f2380380620020f2833981810160405260208110156200003757600080fd5b5051604080516306fdde0360e01b815290516001600160a01b038316916306fdde03916004808301926000929190829003018186803b1580156200007a57600080fd5b505afa1580156200008f573d6000803e3d6000fd5b505050506040513d6000823e601f3d908101601f191682016040526020811015620000b957600080fd5b8101908080516040519392919084640100000000821115620000da57600080fd5b908301906020820185811115620000f057600080fd5b82516401000000008111828201881017156200010b57600080fd5b82525081516020918201929091019080838360005b838110156200013a57818101518382015260200162000120565b50505050905090810190601f168015620001685780820380516001836020036101000a031916815260200191505b5060405250505060405160200180807003930b6363c903232b632b3b0ba34b7339607d1b81525060110182805190602001908083835b60208310620001bf5780518252601f1990920191602091820191016200019e565b6001836020036101000a038019825116818451168082178552505050505050905001915050604051602081830303815290604052816001600160a01b03166395d89b416040518163ffffffff1660e01b815260040160006040518083038186803b1580156200022d57600080fd5b505afa15801562000242573d6000803e3d6000fd5b505050506040513d6000823e601f3d908101601f1916820160405260208110156200026c57600080fd5b81019080805160405193929190846401000000008211156200028d57600080fd5b908301906020820185811115620002a357600080fd5b8251640100000000811182820188101715620002be57600080fd5b82525081516020918201929091019080838360005b83811015620002ed578181015183820152602001620002d3565b50505050905090810190601f1680156200031b5780820380516001836020036101000a031916815260200191505b506040525050506040516020018080611c9960f21b81525060020182805190602001908083835b60208310620003635780518252601f19909201916020918201910162000342565b6001836020036101000a0380198251168184511680821785525050505050509050019150506040516020818303038152906040528160039080519060200190620003af92919062000522565b508051620003c590600490602084019062000522565b50506005805460ff19166012179055506040805163313ce56760e01b8152905162000450916001600160a01b0384169163313ce56791600480820192602092909190829003018186803b1580156200041c57600080fd5b505afa15801562000431573d6000803e3d6000fd5b505050506040513d60208110156200044857600080fd5b50516200050c565b806001600160a01b031663fc0c546a6040518163ffffffff1660e01b815260040160206040518083038186803b1580156200048a57600080fd5b505afa1580156200049f573d6000803e3d6000fd5b505050506040513d6020811015620004b657600080fd5b5051600780546001600160a01b039283166001600160a01b031991821617909155600580549390921661010002610100600160a81b031990931692909217905560006008556006805490911633179055620005be565b6005805460ff191660ff92909216919091179055565b828054600181600116156101000203166002900490600052602060002090601f016020900481019282601f106200056557805160ff191683800117855562000595565b8280016001018555821562000595579182015b828111156200059557825182559160200191906001019062000578565b50620005a3929150620005a7565b5090565b5b80821115620005a35760008155600101620005a8565b611b2480620005ce6000396000f3fe608060405234801561001057600080fd5b506004361061014d5760003560e01c806377c7b8fc116100c3578063b69ef8a81161007c578063b69ef8a81461039a578063b6b55f25146103a2578063dd62ed3e146103bf578063de5f6268146103ed578063fbfa77cf146103f5578063fc0c546a146103fd5761014d565b806377c7b8fc146103225780637d8820971461032a578063853828b61461033257806395d89b411461033a578063a457c2d714610342578063a9059cbb1461036e5761014d565b80632e1a7d4d116101155780632e1a7d4d14610267578063313ce5671461028657806339509351146102a45780634641257d146102d057806361d027b3146102d857806370a08231146102fc5761014d565b806306fdde0314610152578063095ea7b3146101cf578063175e439c1461020f57806318160ddd1461022957806323b872dd14610231575b600080fd5b61015a610405565b6040805160208082528351818301528351919283929083019185019080838360005b8381101561019457818101518382015260200161017c565b50505050905090810190601f1680156101c15780820380516001836020036101000a031916815260200191505b509250505060405180910390f35b6101fb600480360360408110156101e557600080fd5b506001600160a01b03813516906020013561049c565b604080519115158252519081900360200190f35b6102176104ba565b60408051918252519081900360200190f35b610217610584565b6101fb6004803603606081101561024757600080fd5b506001600160a01b0381358116916020810135909116906040013561058a565b6102846004803603602081101561027d57600080fd5b5035610611565b005b61028e6107d8565b6040805160ff9092168252519081900360200190f35b6101fb600480360360408110156102ba57600080fd5b506001600160a01b0381351690602001356107e1565b61028461082f565b6102e0610a45565b604080516001600160a01b039092168252519081900360200190f35b6102176004803603602081101561031257600080fd5b50356001600160a01b0316610a54565b610217610a6f565b610217610b0c565b610284610b12565b61015a610b25565b6101fb6004803603604081101561035857600080fd5b506001600160a01b038135169060200135610b86565b6101fb6004803603604081101561038457600080fd5b506001600160a01b038135169060200135610bee565b610217610c02565b610284600480360360208110156103b857600080fd5b5035610c83565b610217600480360360408110156103d557600080fd5b506001600160a01b0381358116916020013516610f09565b610284610f34565b6102e0610fb1565b6102e0610fc5565b60038054604080516020601f60026000196101006001881615020190951694909404938401819004810282018101909252828152606093909290918301828280156104915780601f1061046657610100808354040283529160200191610491565b820191906000526020600020905b81548152906001019060200180831161047457829003601f168201915b505050505090505b90565b60006104b06104a9610fd4565b8484610fd8565b5060015b92915050565b60008061055a670de0b6b3a7640000610554600560019054906101000a90046001600160a01b03166001600160a01b03166377c7b8fc6040518163ffffffff1660e01b815260040160206040518083038186803b15801561051a57600080fd5b505afa15801561052e573d6000803e3d6000fd5b505050506040513d602081101561054457600080fd5b505161054e610c02565b906110c4565b90611124565b905060085481111561057c57600854610574908290611166565b915050610499565b600091505090565b60025490565b60006105978484846111a8565b610607846105a3610fd4565b61060285604051806060016040528060288152602001611a0e602891396001600160a01b038a166000908152600160205260408120906105e1610fd4565b6001600160a01b031681526020810191909152604001600020549190611303565b610fd8565b5060019392505050565b600061062a61061e610584565b6105548461054e610c02565b9050610636338361139a565b600754604080516370a0823160e01b815230600482015290516000926001600160a01b0316916370a08231916024808301926020929190829003018186803b15801561068157600080fd5b505afa158015610695573d6000803e3d6000fd5b505050506040513d60208110156106ab57600080fd5b505160055460408051632e1a7d4d60e01b81526004810186905290519293506101009091046001600160a01b031691632e1a7d4d9160248082019260009290919082900301818387803b15801561070157600080fd5b505af1158015610715573d6000803e3d6000fd5b5050600754604080516370a0823160e01b81523060048201529051600094506001600160a01b0390921692506370a08231916024808301926020929190829003018186803b15801561076657600080fd5b505afa15801561077a573d6000803e3d6000fd5b505050506040513d602081101561079057600080fd5b50516008549091506107ae9083906107a89084611496565b90611166565b6008556107d2336107bf8385611166565b6007546001600160a01b031691906114f0565b50505050565b60055460ff1690565b60006104b06107ee610fd4565b8461060285600160006107ff610fd4565b6001600160a01b03908116825260208083019390935260409182016000908120918c168152925290205490611496565b60006108396104ba565b90508015610a4257600754604080516370a0823160e01b815230600482015290516000926001600160a01b0316916370a08231916024808301926020929190829003018186803b15801561088c57600080fd5b505afa1580156108a0573d6000803e3d6000fd5b505050506040513d60208110156108b657600080fd5b505160055460408051631df1ee3f60e21b815290519293506101009091046001600160a01b031691632e1a7d4d9161095b91600a916105549160099161054e9188916377c7b8fc916004808301926020929190829003018186803b15801561091d57600080fd5b505afa158015610931573d6000803e3d6000fd5b505050506040513d602081101561094757600080fd5b50516105548a670de0b6b3a76400006110c4565b6040518263ffffffff1660e01b815260040180828152602001915050600060405180830381600087803b15801561099157600080fd5b505af11580156109a5573d6000803e3d6000fd5b5050600754604080516370a0823160e01b81523060048201529051600094506001600160a01b0390921692506370a08231916024808301926020929190829003018186803b1580156109f657600080fd5b505afa158015610a0a573d6000803e3d6000fd5b505050506040513d6020811015610a2057600080fd5b5051600654909150610a3f906001600160a01b03166107bf8385611166565b50505b50565b6006546001600160a01b031681565b6001600160a01b031660009081526020819052604090205490565b6000610b07610a7c610584565b610554610a87610c02565b600560019054906101000a90046001600160a01b03166001600160a01b03166377c7b8fc6040518163ffffffff1660e01b815260040160206040518083038186803b158015610ad557600080fd5b505afa158015610ae9573d6000803e3d6000fd5b505050506040513d6020811015610aff57600080fd5b5051906110c4565b905090565b60085481565b610b23610b1e33610a54565b610611565b565b60048054604080516020601f60026000196101006001881615020190951694909404938401819004810282018101909252828152606093909290918301828280156104915780601f1061046657610100808354040283529160200191610491565b60006104b0610b93610fd4565b8461060285604051806060016040528060258152602001611aca6025913960016000610bbd610fd4565b6001600160a01b03908116825260208083019390935260409182016000908120918d16815292529020549190611303565b60006104b0610bfb610fd4565b84846111a8565b600554604080516370a0823160e01b8152306004820152905160009261010090046001600160a01b0316916370a08231916024808301926020929190829003018186803b158015610c5257600080fd5b505afa158015610c66573d6000803e3d6000fd5b505050506040513d6020811015610c7c57600080fd5b5051905090565b6000610c8d610c02565b600754604080516370a0823160e01b815230600482015290519293506000926001600160a01b03909216916370a0823191602480820192602092909190829003018186803b158015610cde57600080fd5b505afa158015610cf2573d6000803e3d6000fd5b505050506040513d6020811015610d0857600080fd5b5051600754909150610d25906001600160a01b0316333086611542565b600754604080516370a0823160e01b815230600482015290516000926001600160a01b0316916370a08231916024808301926020929190829003018186803b158015610d7057600080fd5b505afa158015610d84573d6000803e3d6000fd5b505050506040513d6020811015610d9a57600080fd5b50519050610da88183611166565b600854909450610db89085611496565b6008556007546005546040805163095ea7b360e01b81526101009092046001600160a01b03908116600484015260248301889052905192169163095ea7b3916044808201926020929091908290030181600087803b158015610e1957600080fd5b505af1158015610e2d573d6000803e3d6000fd5b505050506040513d6020811015610e4357600080fd5b50506005546040805163b6b55f2560e01b81526004810187905290516101009092046001600160a01b03169163b6b55f259160248082019260009290919082900301818387803b158015610e9657600080fd5b505af1158015610eaa573d6000803e3d6000fd5b505050506000610eb8610c02565b90506000610ec68286611166565b90506000610ed2610584565b610edd575080610ef6565b610ef386610554610eec610584565b85906110c4565b90505b610f00338261159c565b50505050505050565b6001600160a01b03918216600090815260016020908152604080832093909416825291909152205490565b600754604080516370a0823160e01b81523360048201529051610b23926001600160a01b0316916370a08231916024808301926020929190829003018186803b158015610f8057600080fd5b505afa158015610f94573d6000803e3d6000fd5b505050506040513d6020811015610faa57600080fd5b5051610c83565b60055461010090046001600160a01b031681565b6007546001600160a01b031681565b3390565b6001600160a01b03831661101d5760405162461bcd60e51b8152600401808060200182810382526024815260200180611a7c6024913960400191505060405180910390fd5b6001600160a01b0382166110625760405162461bcd60e51b81526004018080602001828103825260228152602001806119a56022913960400191505060405180910390fd5b6001600160a01b03808416600081815260016020908152604080832094871680845294825291829020859055815185815291517f8c5be1e5ebec7d5bd14f71427d1e84f3dd0314c0f7b2291e5b200ac8c7c3b9259281900390910190a3505050565b6000826110d3575060006104b4565b828202828482816110e057fe5b041461111d5760405162461bcd60e51b81526004018080602001828103825260218152602001806119ed6021913960400191505060405180910390fd5b9392505050565b600061111d83836040518060400160405280601a81526020017f536166654d6174683a206469766973696f6e206279207a65726f00000000000081525061168c565b600061111d83836040518060400160405280601e81526020017f536166654d6174683a207375627472616374696f6e206f766572666c6f770000815250611303565b6001600160a01b0383166111ed5760405162461bcd60e51b8152600401808060200182810382526025815260200180611a576025913960400191505060405180910390fd5b6001600160a01b0382166112325760405162461bcd60e51b81526004018080602001828103825260238152602001806119606023913960400191505060405180910390fd5b61123d838383610a3f565b61127a816040518060600160405280602681526020016119c7602691396001600160a01b0386166000908152602081905260409020549190611303565b6001600160a01b0380851660009081526020819052604080822093909355908416815220546112a99082611496565b6001600160a01b038084166000818152602081815260409182902094909455805185815290519193928716927fddf252ad1be2c89b69c2b068fc378daa952ba7f163c4a11628f55a4df523b3ef92918290030190a3505050565b600081848411156113925760405162461bcd60e51b81526004018080602001828103825283818151815260200191508051906020019080838360005b8381101561135757818101518382015260200161133f565b50505050905090810190601f1680156113845780820380516001836020036101000a031916815260200191505b509250505060405180910390fd5b505050900390565b6001600160a01b0382166113df5760405162461bcd60e51b8152600401808060200182810382526021815260200180611a366021913960400191505060405180910390fd5b6113eb82600083610a3f565b61142881604051806060016040528060228152602001611983602291396001600160a01b0385166000908152602081905260409020549190611303565b6001600160a01b03831660009081526020819052604090205560025461144e9082611166565b6002556040805182815290516000916001600160a01b038516917fddf252ad1be2c89b69c2b068fc378daa952ba7f163c4a11628f55a4df523b3ef9181900360200190a35050565b60008282018381101561111d576040805162461bcd60e51b815260206004820152601b60248201527f536166654d6174683a206164646974696f6e206f766572666c6f770000000000604482015290519081900360640190fd5b604080516001600160a01b038416602482015260448082018490528251808303909101815260649091019091526020810180516001600160e01b031663a9059cbb60e01b179052610a3f9084906116f1565b604080516001600160a01b0380861660248301528416604482015260648082018490528251808303909101815260849091019091526020810180516001600160e01b03166323b872dd60e01b1790526107d29085906116f1565b6001600160a01b0382166115f7576040805162461bcd60e51b815260206004820152601f60248201527f45524332303a206d696e7420746f20746865207a65726f206164647265737300604482015290519081900360640190fd5b61160360008383610a3f565b6002546116109082611496565b6002556001600160a01b0382166000908152602081905260409020546116369082611496565b6001600160a01b0383166000818152602081815260408083209490945583518581529351929391927fddf252ad1be2c89b69c2b068fc378daa952ba7f163c4a11628f55a4df523b3ef9281900390910190a35050565b600081836116db5760405162461bcd60e51b815260206004820181815283516024840152835190928392604490910191908501908083836000831561135757818101518382015260200161133f565b5060008385816116e757fe5b0495945050505050565b6060611746826040518060400160405280602081526020017f5361666545524332303a206c6f772d6c6576656c2063616c6c206661696c6564815250856001600160a01b03166117a29092919063ffffffff16565b805190915015610a3f5780806020019051602081101561176557600080fd5b5051610a3f5760405162461bcd60e51b815260040180806020018281038252602a815260200180611aa0602a913960400191505060405180910390fd5b60606117b184846000856117b9565b949350505050565b60606117c485611926565b611815576040805162461bcd60e51b815260206004820152601d60248201527f416464726573733a2063616c6c20746f206e6f6e2d636f6e7472616374000000604482015290519081900360640190fd5b60006060866001600160a01b031685876040518082805190602001908083835b602083106118545780518252601f199092019160209182019101611835565b6001836020036101000a03801982511681845116808217855250505050505090500191505060006040518083038185875af1925050503d80600081146118b6576040519150601f19603f3d011682016040523d82523d6000602084013e6118bb565b606091505b509150915081156118cf5791506117b19050565b8051156118df5780518082602001fd5b60405162461bcd60e51b815260206004820181815286516024840152865187939192839260440191908501908083836000831561135757818101518382015260200161133f565b6000813f7fc5d2460186f7233c927e7db2dcc703c0e500b653ca82273b7bfad8045d85a4708181148015906117b157505015159291505056fe45524332303a207472616e7366657220746f20746865207a65726f206164647265737345524332303a206275726e20616d6f756e7420657863656564732062616c616e636545524332303a20617070726f766520746f20746865207a65726f206164647265737345524332303a207472616e7366657220616d6f756e7420657863656564732062616c616e6365536166654d6174683a206d756c7469706c69636174696f6e206f766572666c6f7745524332303a207472616e7366657220616d6f756e74206578636565647320616c6c6f77616e636545524332303a206275726e2066726f6d20746865207a65726f206164647265737345524332303a207472616e736665722066726f6d20746865207a65726f206164647265737345524332303a20617070726f76652066726f6d20746865207a65726f20616464726573735361666545524332303a204552433230206f7065726174696f6e20646964206e6f74207375636365656445524332303a2064656372656173656420616c6c6f77616e63652062656c6f77207a65726fa2646970667358221220d5a71c27e9e9126abb23b37527229a83218a52802d4f4e9c00ff8a730ae9528364736f6c634300060c0033",
  "immutableReferences": {},
  "source": "// SPDX-License-Identifier: MIT\npragma solidity ^0.6.2;\n\nimport \"@openzeppelin/contracts/token/ERC20/IERC20.sol\";\nimport \"@openzeppelin/contracts/math/SafeMath.sol\";\nimport \"@openzeppelin/contracts/utils/Address.sol\";\nimport \"@openzeppelin/contracts/token/ERC20/SafeERC20.sol\";\nimport \"@openzeppelin/contracts/token/ERC20/ERC20.sol\";\nimport \"@openzeppelin/contracts/GSN/Context.sol\";\n\nimport \"./interfaces/Controller.sol\";\nimport \"./interfaces/Vault.sol\";\n\ncontract YieldDelegatingVault is ERC20 {\n    using SafeERC20 for IERC20;\n    using Address for address;\n    using SafeMath for uint256;\n\n    address public vault;\n    address public treasury;\n    IERC20 public token;\n    \n    uint public totalDeposits;\n\n    constructor (address _vault) public ERC20(\n        string(abi.encodePacked(\"rally delegating \", ERC20(_vault).name())),\n        string(abi.encodePacked(\"rd\", ERC20(_vault).symbol()))\n    ) {\n        _setupDecimals(ERC20(_vault).decimals());\n        token = IERC20(Vault(_vault).token()); //token being deposited in the referenced vault\n        vault = _vault; //address of the vault we're proxying\n        totalDeposits = 0;\n        treasury = msg.sender;\n    }\n\n    function balance() public view returns (uint) {\n        return (IERC20(vault)).balanceOf(address(this)); //how many shares do we have in the vault we are delegating to\n    }\n\n    function depositAll() external {\n        deposit(token.balanceOf(msg.sender));\n    }\n\n    function deposit(uint _amount) public {\n        uint _pool = balance(); //how many vault shares do we have?\n\n        uint _before = token.balanceOf(address(this));\n        token.safeTransferFrom(msg.sender, address(this), _amount);\n        uint _after = token.balanceOf(address(this));\n        _amount = _after.sub(_before); // Additional check for deflationary tokens\n\n        totalDeposits = totalDeposits.add(_amount);\n\n        token.approve(vault, _amount);\n        Vault(vault).deposit(_amount); // deposit funds into vault\n        uint _after_pool = balance(); // deposit awarded me more vault tokens\n\t\t\n        uint _new_shares = _after_pool.sub(_pool); //new vault tokens representing my added vault shares\n\n        //translate vault shares into delegating vault shares\n        uint shares = 0;\n        if (totalSupply() == 0) {\n            shares = _new_shares;\n        } else {\n            shares = (_new_shares.mul(totalSupply())).div(_pool);\n        }\n        _mint(msg.sender, shares);\n    }\n\n    function withdrawAll() external {\n        withdraw(balanceOf(msg.sender));\n    }\n\n    function withdraw(uint _shares) public {\n        uint r = (balance().mul(_shares)).div(totalSupply());\n        _burn(msg.sender, _shares);\n\n        uint _before = token.balanceOf(address(this));\n        Vault(vault).withdraw(r);\n        uint _after = token.balanceOf(address(this));\n\n        totalDeposits = totalDeposits.add(_after).sub(_before);\n\n        token.safeTransfer(msg.sender, _after.sub(_before));\n    }\n\n    //differs from underlying vault implementation, price per full share denominated in token type we are depositing into the underlying vault\n    function getPricePerFullShare() public view returns (uint) {\n    \treturn (Vault(vault).getPricePerFullShare().mul(balance())).div(totalSupply());\n    }\n\n    //how much are our shares of the underlying vault worth relative to the deposit value? that's the avaialable yield\n    function availableYield() public view returns (uint) {\n        uint totalValue = balance().mul(Vault(vault).getPricePerFullShare()).div(1e18);\n        if (totalValue > totalDeposits) {\n            return totalValue.sub(totalDeposits);\n        }\n        return 0;\n    }\n\n    function harvest() external {\n        uint _availableYield = availableYield();\n        if (_availableYield > 0) {\n            uint _before = token.balanceOf(address(this));\n                Vault(vault).withdraw(_availableYield.mul(1e18).div(Vault(vault).getPricePerFullShare()).mul(9).div(10)); //translate yield to shares in underlying vault, haircut to 90% to allow for fees etc...\n            uint _after = token.balanceOf(address(this));\n            token.safeTransfer(treasury, _after.sub(_before));\n        }\n    }\n}\n",
  "sourcePath": "/Users/aclement/Documents/Rally/yield-delegation/contracts/YieldDelegatingVault.sol",
  "compiler": {
    "name": "solc",
    "version": "0.6.12+commit.27d51765.Emscripten.clang"
  },
  "schemaVersion": "3.2.3",
  "updatedAt": "2020-09-24T12:54:28.553Z",
  "networkType": "ethereum",
  "devdoc": {
    "kind": "dev",
    "methods": {
      "allowance(address,address)": {
        "details": "See {IERC20-allowance}."
      },
      "approve(address,uint256)": {
        "details": "See {IERC20-approve}. Requirements: - `spender` cannot be the zero address."
      },
      "balanceOf(address)": {
        "details": "See {IERC20-balanceOf}."
      },
      "decimals()": {
        "details": "Returns the number of decimals used to get its user representation. For example, if `decimals` equals `2`, a balance of `505` tokens should be displayed to a user as `5,05` (`505 / 10 ** 2`). Tokens usually opt for a value of 18, imitating the relationship between Ether and Wei. This is the value {ERC20} uses, unless {_setupDecimals} is called. NOTE: This information is only used for _display_ purposes: it in no way affects any of the arithmetic of the contract, including {IERC20-balanceOf} and {IERC20-transfer}."
      },
      "decreaseAllowance(address,uint256)": {
        "details": "Atomically decreases the allowance granted to `spender` by the caller. This is an alternative to {approve} that can be used as a mitigation for problems described in {IERC20-approve}. Emits an {Approval} event indicating the updated allowance. Requirements: - `spender` cannot be the zero address. - `spender` must have allowance for the caller of at least `subtractedValue`."
      },
      "increaseAllowance(address,uint256)": {
        "details": "Atomically increases the allowance granted to `spender` by the caller. This is an alternative to {approve} that can be used as a mitigation for problems described in {IERC20-approve}. Emits an {Approval} event indicating the updated allowance. Requirements: - `spender` cannot be the zero address."
      },
      "name()": {
        "details": "Returns the name of the token."
      },
      "symbol()": {
        "details": "Returns the symbol of the token, usually a shorter version of the name."
      },
      "totalSupply()": {
        "details": "See {IERC20-totalSupply}."
      },
      "transfer(address,uint256)": {
        "details": "See {IERC20-transfer}. Requirements: - `recipient` cannot be the zero address. - the caller must have a balance of at least `amount`."
      },
      "transferFrom(address,address,uint256)": {
        "details": "See {IERC20-transferFrom}. Emits an {Approval} event indicating the updated allowance. This is not required by the EIP. See the note at the beginning of {ERC20}; Requirements: - `sender` and `recipient` cannot be the zero address. - `sender` must have a balance of at least `amount`. - the caller must have allowance for ``sender``'s tokens of at least `amount`."
      }
    },
    "version": 1
  },
  "userdoc": {
    "kind": "user",
    "methods": {},
    "version": 1
  }
}