{
  "contractName": "YieldDelegatingVaultStorage",
  "abi": [
    {
      "inputs": [],
      "name": "accRallyPerShare",
      "outputs": [
        {
          "internalType": "uint256",
          "name": "",
          "type": "uint256"
        }
      ],
      "stateMutability": "view",
      "type": "function"
    },
    {
      "inputs": [],
      "name": "controller",
      "outputs": [
        {
          "internalType": "address",
          "name": "",
          "type": "address"
        }
      ],
      "stateMutability": "view",
      "type": "function"
    },
    {
      "inputs": [],
      "name": "delegatePercent",
      "outputs": [
        {
          "internalType": "uint256",
          "name": "",
          "type": "uint256"
        }
      ],
      "stateMutability": "view",
      "type": "function"
    },
    {
      "inputs": [],
      "name": "globalDepositCap",
      "outputs": [
        {
          "internalType": "uint256",
          "name": "",
          "type": "uint256"
        }
      ],
      "stateMutability": "view",
      "type": "function"
    },
    {
      "inputs": [],
      "name": "individualDepositCap",
      "outputs": [
        {
          "internalType": "uint256",
          "name": "",
          "type": "uint256"
        }
      ],
      "stateMutability": "view",
      "type": "function"
    },
    {
      "inputs": [],
      "name": "rally",
      "outputs": [
        {
          "internalType": "contract IERC20",
          "name": "",
          "type": "address"
        }
      ],
      "stateMutability": "view",
      "type": "function"
    },
    {
      "inputs": [
        {
          "internalType": "address",
          "name": "",
          "type": "address"
        }
      ],
      "name": "rewardDebt",
      "outputs": [
        {
          "internalType": "uint256",
          "name": "",
          "type": "uint256"
        }
      ],
      "stateMutability": "view",
      "type": "function"
    },
    {
      "inputs": [],
      "name": "rewardPerToken",
      "outputs": [
        {
          "internalType": "uint256",
          "name": "",
          "type": "uint256"
        }
      ],
      "stateMutability": "view",
      "type": "function"
    },
    {
      "inputs": [],
      "name": "token",
      "outputs": [
        {
          "internalType": "contract IERC20",
          "name": "",
          "type": "address"
        }
      ],
      "stateMutability": "view",
      "type": "function"
    },
    {
      "inputs": [],
      "name": "totalDeposits",
      "outputs": [
        {
          "internalType": "uint256",
          "name": "",
          "type": "uint256"
        }
      ],
      "stateMutability": "view",
      "type": "function"
    },
    {
      "inputs": [],
      "name": "treasury",
      "outputs": [
        {
          "internalType": "address",
          "name": "",
          "type": "address"
        }
      ],
      "stateMutability": "view",
      "type": "function"
    },
    {
      "inputs": [],
      "name": "vault",
      "outputs": [
        {
          "internalType": "address",
          "name": "",
          "type": "address"
        }
      ],
      "stateMutability": "view",
      "type": "function"
    }
  ],
  "bytecode": "0x608060405234801561001057600080fd5b5061021b806100206000396000f3fe608060405234801561001057600080fd5b50600436106100b35760003560e01c8063bdeb560211610071578063bdeb560214610134578063cbb58bf71461013c578063cd3daf9d14610144578063f77c47911461014c578063fbfa77cf14610154578063fc0c546a1461015c576100b3565b806230bffe146100b85780635873eb9b146100dc57806361d027b3146101145780636b4965091461011c5780637d882097146101245780637fd347971461012c575b600080fd5b6100c0610164565b604080516001600160a01b039092168252519081900360200190f35b610102600480360360208110156100f257600080fd5b50356001600160a01b0316610173565b60408051918252519081900360200190f35b6100c0610185565b610102610194565b61010261019a565b6101026101a0565b6101026101a6565b6101026101ac565b6101026101b2565b6100c06101b8565b6100c06101c7565b6100c06101d6565b6003546001600160a01b031681565b60096020526000908152604090205481565b6004546001600160a01b031681565b60065481565b600a5481565b60075481565b600c5481565b60085481565b600b5481565b6000546001600160a01b031681565b6001546001600160a01b031681565b6005546001600160a01b03168156fea2646970667358221220d7213054d1fa809b23951fe39135cc288cf1cdbe98327b321985fa65c0446edf64736f6c634300060c0033",
  "immutableReferences": {},
  "source": "// SPDX-License-Identifier: MIT\npragma solidity ^0.6.2;\n\nimport \"@openzeppelin/contracts/token/ERC20/IERC20.sol\";\nimport \"./YDVRewardsDistributor.sol\";\n\ncontract YieldDelegatingVaultStorage {\n    address public controller;\n    address public vault;\n    YDVRewardsDistributor rewards;\n    IERC20 public rally;\n    address public treasury;\n    IERC20 public token;\n    uint256 public delegatePercent;\n    uint256 public globalDepositCap;\n    uint256 public individualDepositCap;\n    \n    mapping(address => uint256) public rewardDebt;\n    uint256 public totalDeposits;\n\n    uint256 public rewardPerToken;\n    uint256 public accRallyPerShare;\n}\n",
  "sourcePath": "/Users/aclement/Documents/Rally/yield-delegation/contracts/YieldDelegatingVaultStorage.sol",
  "compiler": {
    "name": "solc",
    "version": "0.6.12+commit.27d51765.Emscripten.clang"
  },
  "schemaVersion": "3.2.3",
  "updatedAt": "2020-10-06T13:09:07.289Z",
  "devdoc": {
    "kind": "dev",
    "methods": {},
    "version": 1
  },
  "userdoc": {
    "kind": "user",
    "methods": {},
    "version": 1
  }
}